:100000000C9471010C94A2010C94A2010C94A20115
:100010000C94A2010C94A2010C94A2010C94A201D4
:100020000C94A2010C9450090C9450090C945009A2
:100030000C94A2010C94C80A0C94A2010C94A20185
:100040000C94A2010C94210D0C94A2010C94A20119
:100050000C94A2010C94A2010C94A2010C947E0AAF
:100060000C94A2010C94370C0C940D0C0C94A2016E
:100070000C94A2010C94A2010C94A2010C94A20174
:100080000C94A2010C94A2010C94A2010C94A20164
:100090000C94A2010C94A2010C94A2010C945A0994
:1000A0000C94A2010C94A2010C94A2010C94A20144
:1000B0000C94A2010C94A2010C94A2010C94610C6A
:1000C0000C94A2010C94A2010C94A2010C94E30BD9
:1000D0000C94B90B0C94A2010C948F0B0C94650B2F
:1000E0000C94A2010C949A020C94F6040C947B02DA
:1000F0000C94B6020C9496020C945F050C9466075F
:100100000C941B070C94E3060C949E020C94A8021A
:100110000C94D7080C94F7010C943C050C947007D0
:100120000C942F070C947F020C94CD060C94AC0217
:100130000C94DD010C9411070C94CB010C94250751
:100140000C94B1020C94B2020C94CD010C944B05AA
:100150000C94CE010C9486020C94F7060C94ED06D8
:100160000C94CC010C9409070C9477020C94D912CE
:100170000C948C020C94C90D0C946D050C9406061D
:100180000C94F0010C9420080C94DE060C942402CC
:100190000C9471020C9401070C945C070C943E07BC
:1001A0000C94A4020C94B9050C9452070C94900280
:1001B0000C9448070C9483020C942108020000213F
:1001C00000240027002A002D003000330001010028
:1001D00000040107010A0100002200250028002B6D
:1001E000002E003100340002010000050108010B5F
:1001F00001000020002300260029002C002F0032DF
:1002000000000100000301060109010505050507BD
:100210000508080808020202020A0A080804040481
:1002200004010101010101010103030303030303AD
:1002300003040707070C0C0C0C0C0C0C0C0202023C
:100240000206060606060606060B0B0B0B0B0B0B2F
:100250000B010210202008081020401020408002CE
:1002600001020108040201010204081020408080FC
:100270004020100804020180040201804020100880
:100280000402010804020101020408102040800158
:100290000204081020408000000A0B02090C0D0E19
:1002A0000807030401000000000000000000000037
:1002B000000000000000000000000000000000003E
:1002C00000000012111000000000000000000000FB
:1002D0000000000000000000000000000000C90D48
:1002E000D91211241FBECFEFD1E2DEBFCDBF00E097
:1002F0000CBF12E0A0E0B2E0EEEAFEE200E00BBFCD
:1003000002C007900D92AA35B107D9F727E0AAE5F8
:10031000B2E001C01D92A635B207E1F711E0C0E7D7
:10032000D1E000E006C021970109802FFE010E9464
:100330000D14CF36D10780E00807A9F70E94B20F4D
:100340000C9445170C9400002091EA02260F3327E5
:10035000331F21323105ECF420913703FC0190E08A
:1003600080E0243069F082E00895A091EA022191B2
:10037000AC0148535D4FA40FB52FB11D2C930196CE
:10038000861798F38091EA02680F6093EA0280E092
:10039000089581E00895089508950895E091C602B2
:1003A0008091C502E81730F4F0E0EB55FD4F8081F5
:1003B00090E008958FEF9FEF08959091C60280918D
:1003C000C5022FEF3FEF981748F4E92FF0E0EB5507
:1003D000FD4F208130E09F5F9093C602C9010895D0
:1003E0008091C5029091C602891B990B0895CF9206
:1003F000DF92EF92FF920F931F93CF93DF937C01D5
:10040000CB018A0120913D03222389F0EB016B018E
:10041000C40ED51ECC15DD0569F06991D701ED91AB
:10042000FC910190F081E02DC7011995F3CF642F65
:100430000E94A401C801DF91CF911F910F91FF90FD
:10044000EF90DF90CF900895CF93DF931F92CDB7B9
:10045000DEB7698320913D032223F9F020916003E8
:10046000203258F021E030E0FC013383228390E019
:1004700080E00F90DF91CF91089580913E03E82FA7
:10048000F0E0E15CFC4F998190838F5F80933E03A5
:100490008093600381E090E0ECCF61E0CE010196B3
:1004A0000E94A401F7CF8150823108F05AC0E82F92
:1004B000F0E08827E15AFD4F8F4F0C940D147F0216
:1004C0008302710277027B02B10286028C029002E3
:1004D00096029A029E02A402A802B102AC02B202E3
:1004E000B602809180008F7780938000089580917C
:1004F00080008F7DF9CF80918000877FF5CF84B514
:100500008F7784BD089584B58F7DFBCF8091B00037
:100510008F778093B00008958091B0008F7DF9CFE0
:10052000809190008F778093900008958091900043
:100530008F7DF9CF80919000877FF5CF8091A000CB
:100540008F778093A00008958091A0008F7DF9CFD0
:100550008091A000877FF5CF809120018F778093D5
:1005600020010895809120018F7DF9CF8091200195
:10057000877FF5CFCF93DF93282F30E0F901E9563D
:10058000FD4F8491F901EF5AFD4FD491F901E55FD8
:10059000FD4FC491CC23A1F081110E945302EC2F96
:1005A000F0E0EE0FFF1FEF50FE4FA591B491EC91DC
:1005B000ED2381E090E009F480E0DF91CF91089590
:1005C00080E090E0FACF1F93CF93DF93282F30E0A5
:1005D000F901E956FD4F8491F901EF5AFD4FD4918D
:1005E000F901E55FFD4FC491CC23A9F0162F8111CD
:1005F0000E945302EC2FF0E0EE0FFF1FE952FE4F76
:10060000A591B4918FB7F894EC91111108C0D095D1
:10061000DE23DC938FBFDF91CF911F910895DE2BF6
:10062000F8CF1092370381E08093360310921103C4
:1006300061E084E10E94E30261E085E10E94E3025F
:10064000E9EBF0E080818E7F808380818D7F8083E5
:1006500088E48093B80085E48093BC000895CF932C
:10066000DF9391E09093C7028823B9F0C091B8005E
:10067000D091BA008091BC008A7B8093BC0060E07E
:1006800084E10E94E30260E085E10E94E3020E94AF
:100690001103D093BA00C093B800DF91CF910895B1
:1006A000CF93DF9390E0FC01EF5AFD4F2491855FDB
:1006B0009D4FFC0184918823D1F090E0880F991F11
:1006C000FC01E354FE4FA591B491FC01E952FE4FA9
:1006D000C591D49161110EC09FB7F8948C91E22F0F
:1006E000E0958E238C932881E223E8839FBFDF91DE
:1006F000CF9108958FB7F894EC91E22BEC938FBFD4
:10070000F6CF3FB7F8948091A1029091A202A091F8
:10071000A302B091A40226B5A89B05C02F3F19F0F3
:100720000196A11DB11D3FBFBA2FA92F982F882771
:10073000BC01CD01620F711D811D911D42E0660F4C
:10074000771F881F991F4A95D1F70895CF92DF929E
:10075000EF92FF920F931F93CF93DF93D09160039B
:1007600081E0D13208F09CC0C0915F030E948103F8
:100770006B017C018091370381116CC082E0809312
:10078000370381E0809336038FEF80933503109217
:100790003403D0933303AFE3B3E0E3E1F3E080E06D
:1007A000D8138DC01092120380911203CC0FC82B66
:1007B000C093120380911103813009F084C010921C
:1007C00011030E9481036B017C01809112038093CD
:1007D000BB008091390390913A03A0913B03B09103
:1007E0003C03892B8A2B8B2BA1F00E948103009163
:1007F000390310913A0320913B0330913C036C196B
:100800007D098E099F09061717072807390708F47D
:1008100042C08091BC0083FDD8CF85EC8093BC00A2
:100820000E9481036B017C0180913703823009F4BF
:100830004CC0809135038F3F09F469C08091350326
:10084000803209F466C080913503803309F463C0B7
:1008500084E026C08091390390913A03A0913B0334
:10086000B0913C03892B8A2B8B2B09F483CF0E94F8
:1008700081030091390310913A0320913B03309199
:100880003C036C197D098E099F0906171707280775
:10089000390708F06FCF809138030E942F0385E05D
:1008A00010923E031092600310923D03DF91CF91AE
:1008B0001F910F91FF90EF90DF90CF9008959D9141
:1008C00091938F5F6DCF85EEA9CF80913903909181
:1008D0003A03A0913B03B0913C03892B8A2B8B2BCD
:1008E00009F4A2CF0E9481030091390310913A03C9
:1008F00020913B0330913C036C197D098E099F09BF
:10090000061717072807390708F08ECFC4CF80E0F5
:10091000C7CF82E0C5CF83E0C3CF0F931F93CF93A0
:10092000DF93162F072FCBE1D7E0AA85BB859C85E7
:1009300021E020933D0390935F0310923E031092B9
:100940006003ED91FC9111970190F081E02D682FEB
:10095000CD0119958A859B85DC01ED91FC91019073
:10096000F081E02D602F19958A859B85DC01ED9142
:10097000FC910190F081E02D612F1995DF91CF91CD
:100980001F910F910C94A6038F929F92AF92BF92EA
:10099000CF92DF92EF92FF924B015C010E948103A4
:1009A0006B017C010E9481036C197D098E099F09EE
:1009B000683E734081059105A8F321E0821A9108F1
:1009C000A108B10888EEC80E83E0D81EE11CF11C16
:1009D00081149104A104B10429F7FF90EF90DF90F6
:1009E000CF90BF90AF909F908F900895AF92BF929D
:1009F000CF92DF92EF92FF920F931F93CF93DF93EB
:100A00006C017B018B01040F151FEB015E01AE1819
:100A1000BF08C017D10759F06991D601ED91FC913B
:100A20000190F081E02DC6011995892B79F7C50158
:100A3000DF91CF911F910F91FF90EF90DF90CF90BA
:100A4000BF90AF900895FC01A089B1898C91A689CF
:100A5000B78982FD0FC09C91818D8F5F8F73228D2E
:100A6000821749F0A18DAE0FBF2FB11D5D969C93EB
:100A7000818F08958C910895FC01538D448D252F0D
:100A800030E0842F90E0821B930B541710F0CF9628
:100A9000089501970895FC01918D828D981761F05A
:100AA000A28DAE0FBF2FB11D5D968C91928D9F5F71
:100AB0009F73928F90E008958FEF9FEF0895FC0150
:100AC000918D828D981731F0828DE80FF11D858D03
:100AD00090E008958FEF9FEF0895FC01918D228D96
:100AE000892F90E0805C9F4F821B91098F7399271B
:100AF00008958DE693E00E946D0521E0892B09F4AD
:100B000020E0822F08958AE094E00E946D0521E0A4
:100B1000892B09F420E0822F089587EA94E00E944F
:100B20006D0521E0892B09F420E0822F0895FC0156
:100B3000A48DA80FB92FB11DA35ABF4F2C91848D3E
:100B400090E001968F739927848FA689B7892C939B
:100B5000A089B1898C91837080648C93938D848DEE
:100B6000981306C00288F389E02D80818F7D8083F1
:100B70000895EF92FF920F931F93CF93DF93EC01B1
:100B800081E0888F9B8D8C8D98131AC0E889F98934
:100B9000808185FF15C09FB7F894EE89FF89608337
:100BA000E889F98980818370806480839FBF81E0B8
:100BB00090E0DF91CF911F910F91FF90EF900895FA
:100BC000F62E0B8D10E00F5F1F4F0F731127E02ED5
:100BD0008C8D8E110CC00FB607FCFACFE889F9890D
:100BE000808185FFF5CFCE010E949705F1CFEB8D77
:100BF000EC0FFD2FF11DE35AFF4FF0829FB7F894E1
:100C00000B8FEA89FB8980818062CFCFCF93DF93FE
:100C1000EC01888D8823B9F0AA89BB89E889F98914
:100C20008C9185FD03C0808186FD0DC00FB607FC49
:100C3000F7CF8C9185FFF2CF808185FFEDCFCE017C
:100C40000E949705E9CFDF91CF910895F0E0E0E0B1
:100C5000199480E090E0892B29F00E948D05811184
:100C60000E94000080E090E0892B49F080E090E055
:100C7000892B29F00E94000081110E9400000E942F
:100C8000830581110E94260680E090E0892B29F0DF
:100C90000E94790581110C94000008958F929F9213
:100CA000AF92BF92CF92DF92EF92FF920F931F937A
:100CB000CF93DF93EC016A017B0120E030E04FE746
:100CC00053E4CB01B6010E9443134B015C0120E0C9
:100CD00030E0A9010E942A1518168CF5C501B4014F
:100CE0000E94F4148B01B98020E030E0A901C70113
:100CF000B6010E942A1560E018160CF061E08B2DF9
:100D00000E94E3020F3F110509F0ECF41127C8819E
:100D100061E08C2F0E94500301151105B9F460E0C9
:100D20008C2FDF91CF911F910F91FF90EF90DF906B
:100D3000CF90BF90AF909F908F900C94E302C5012D
:100D4000B4019058CDCF0FEF10E0E1CF0F3F110568
:100D500011F461E0E5CFEC2FF0E0E956FD4FE491AE
:100D6000E150E23108F0BCC0F0E08827E554F94FCB
:100D70008F4F0C940D14CD06DE06E306ED06F70644
:100D800070070107090711071B0725072F073E07F3
:100D90004807700752075C07660784B5806884BD02
:100DA00007BDDF91CF911F910F91FF90EF90DF90E2
:100DB000CF90BF90AF909F908F90089584B5806240
:100DC00084BD08BDEECF8091800080688093800054
:100DD0001093890000938800E4CF809180008062A6
:100DE0008093800010938B0000938A00DACF80916B
:100DF000800088608093800010938D0000938C00A9
:100E0000D0CF8091B00080688093B0000093B30091
:100E1000C8CF8091B00080628093B0000093B4008E
:100E2000C0CF8091900080688093900010939900CB
:100E300000939800B6CF80919000806280939000DC
:100E400010939B0000939A00ACCF80919000886033
:100E50008093900010939D0000939C00A2CF8091FE
:100E6000A00080688093A0008091A0008F7B809379
:100E7000A0001093A9000093A80093CF8091A00038
:100E800080628093A0001093AB000093AA0089CFEA
:100E90008091A00088608093A0001093AD00009323
:100EA000AC007FCF80912001806880932001109357
:100EB00029010093280175CF8091200180628093E1
:100EC000200110932B0100932A016BCF8091200108
:100ED00088608093200110932D0100932C0161CF35
:100EE000003811050CF035CF1ACF8EBD00000DB4BF
:100EF00007FEFDCF8EB50895CF93DF93EC0160E040
:100F000088810E94E30288E90E94750780E00E94C0
:100F1000750780E00E94750780E00E94750780E0F9
:100F20000E94750761E088810E94E3028BE891E0EE
:100F30000197F1F760E088810E94E30280EE0E9451
:100F4000750761E08881DF91CF910C94E302AF9245
:100F5000BF92CF92DF92EF92FF920F931F93CF93A6
:100F6000DF93CDB7DEB760970FB6F894DEBF0FBE44
:100F7000CDBF6C0160E0FC0180810E94E30280E64D
:100F80000E9475079E012F5F3F4F79015E0131E19D
:100F9000A30EB11C870180E00E94750790E0B0E0CD
:100FA000A0E0F80181939193A193B1938F01EA1589
:100FB000FB0589F761E0F60180810E94E30280E091
:100FC00090E0DC01F70141915191619171917F01B4
:100FD000BA2FA92F982F8827840F951FA61FB71FF8
:100FE000E017F10779F79C01AD0166277727CB0160
:100FF000621B730B840B950B60960FB6F894DEBFE3
:101000000FBECDBFDF91CF911F910F91FF90EF9059
:10101000DF90CF90BF90AF900895FC01248131E024
:1010200030933D0320935F0310923E0310926003C0
:101030008485682B81E693E00E9424020C94A60329
:10104000089590E080E008954F925F926F927F92B2
:101050008F929F92AF92BF92CF92DF92EF92FF92C8
:101060000F931F93CF93DF9300D000D0CDB7DEB79F
:1010700049835A836B837C833E832D836701BC0144
:10108000990F880B990B0E94E4129B01AC01C801D7
:10109000B6010E9415146B017C012AE037ED43E292
:1010A0005CE30E94431320917702309178024091D3
:1010B000790250917A020E9416144B015C018092D1
:1010C000770290927802A0927902B0927A02ED8132
:1010D000FE812081318142815381C701B6010E9486
:1010E00015142AE037ED43E25CE30E9482142AE9FA
:1010F00039E949E15EE30E9443132B013C012DECE9
:101100003CEC4CEC5EE3C501B4010E944313A70123
:1011100096010E9416149B01AC01C301B2010E940A
:101120001614609373027093740280937502909307
:101130007602ED81FE81C082D182E282F38227E1D4
:1011400037EB41ED58E30E94431329813A814B81EB
:101150005C810E94161426960FB6F894DEBF0FBE6F
:10116000CDBFDF91CF911F910F91FF90EF90DF9056
:10117000CF90BF90AF909F908F907F906F905F9037
:101180004F9008950F931F93CF938C01C62F6460E7
:101190000E940D086C2F6B7FC8010E940D0883EC24
:1011A00090E00197F1F7CF911F910F9108950F9360
:1011B0001F93CF93DF938C01C62FD62FD07FD160A2
:1011C0006D2F0E940D086D2FC8010E94C20880E19A
:1011D000C89FE0011124C1606C2FC8010E940D0856
:1011E0006C2FC8010E94C20881E090E0DF91CF918E
:1011F0001F910F910895CF93DF93FC010190002080
:10120000E9F73197AF01481B590BBC0187EA94E01D
:101210000E94F604EC0142E050E06FE372E087EADE
:1012200094E00E94F6048C0F9D1FDF91CF910895EA
:1012300085ED8093BC008091390390913A03A09191
:101240003B03B0913C030796A11DB11D23E0B69569
:10125000A795979587952A95D1F72091BC0024FDF5
:1012600003C01092370308954091390350913A0317
:1012700060913B0370913C03452B462B472B69F350
:101280000097A105B10541F02AE22A95F1F700C0C7
:101290000197A109B109E1CF809138030C942F0384
:1012A0001F920F920FB60F9211240F900FBE0F9046
:1012B0001F9018951F920F920FB60F9211240BB624
:1012C0000F922F933F934F935F936F937F938F93DF
:1012D0009F93AF93BF93EF93FF938091B900887F63
:1012E000803609F44DC008F040C0883209F4A9C026
:1012F00028F5803109F49DC0C8F4882309F4FBC0A7
:10130000883009F496C0FF91EF91BF91AF919F9102
:101310008F917F916F915F914F913F912F910F909E
:101320000BBE0F900FBE0F901F901895883109F4D7
:1013300088C0803241F78093350314C0803409F4AB
:101340009DC040F48033B9F38833E9F680933503C8
:1013500085ECB0C0803509F485C0883509F496C0A5
:10136000883489F60E941809CECF883909F48CC0D8
:1013700038F5883729F050F4883611F0803719F69F
:1013800083E08093370310920E0357C0883809F426
:101390007BC0803919F0803809F0B5CF80910E03F9
:1013A000803208F071C0E0910E0381E08E0F8093CF
:1013B0000E038091BB00F0E0E251FD4F80833DC001
:1013C000803B39F0E0F4803A09F479C0883A09F0BA
:1013D0009ACF84E0809337031092EB021092EA02D6
:1013E000E091E802F091E90219958091EA028111F9
:1013F0000FC081E08093EA021092C80209C0803CCD
:1014000009F4A6CF883C09F4A3CF883B09F07BCF31
:10141000E091EB0281E08E0F8093EB02F0E0E85365
:10142000FD4F80818093BB009091EB028091EA0296
:1014300029C0809112038093BB0085EC8093BC008F
:1014400062CF9091340380913303981758F5E0915F
:10145000340381E08E0F80933403F0E0ED5EFC4FA7
:101460008081E9CFE091340381E08E0F80933403D3
:101470008091BB00F0E0ED5EFC4F808390913403DF
:10148000809133039817C8F285E8D8CFE0913403F0
:1014900081E08E0F809334038091BB00F0E0ED5E1D
:1014A000FC4F80838091360381115CCF81E0809373
:1014B000110384EA8093BC001092370324CF85EC9B
:1014C0008093BC001092370380910E03803230F479
:1014D000E0910E03F0E0E251FD4F108260910E03A7
:1014E00070E0E091EC02F091ED028EEE92E0199541
:1014F00010920E0308CF1092350334CF1F920F9233
:101500000FB60F9211242F933F938F939F93AF9316
:10151000BF9380919D0290919E02A0919F02B091F5
:10152000A00230919C0223E0230F2D3758F501963D
:10153000A11DB11D20939C0280939D0290939E0259
:10154000A0939F02B093A0028091A1029091A20269
:10155000A091A302B091A4020196A11DB11D809398
:10156000A1029093A202A093A302B093A402BF9100
:10157000AF919F918F913F912F910F900FBE0F9040
:101580001F90189526E8230F0296A11DB11DD2CFFA
:101590001F920F920FB60F9211240BB60F922F933A
:1015A0003F934F935F936F937F938F939F93AF93EB
:1015B000BF93EF93FF9380917D0290917E02A09163
:1015C0007F02B0918002892B8A2B8B2BD1F19091D5
:1015D0007C028091000089278093000080917D0229
:1015E00090917E02A0917F02B09180021816190698
:1015F0001A061B069CF480917D0290917E02A091B8
:101600007F02B09180020197A109B10980937D0208
:1016100090937E02A0937F02B0938002FF91EF919E
:10162000BF91AF919F918F917F916F915F914F91FA
:101630003F912F910F900BBE0F900FBE0F901F90F8
:10164000189580910002ECEBF1E0E4919FEF90930C
:101650000002E230E9F040F4EE2389F0E13091F04D
:1016600060E00E94E302DACFE43049F110F1E530A6
:10167000B9F7909173009D7F90937300F1CF109212
:101680006E00EECF90916F009D7F90936F00E8CF3A
:10169000909170009D7F9093700091E09093B000C6
:1016A0009091B100987F94609093B1001092B30034
:1016B000D7CF909171009D7F90937100D1CF909181
:1016C00072009D7F90937200CBCF1F920F920FB646
:1016D0000F9211240BB60F922F933F934F935F936A
:1016E0006F937F938F939F93AF93BF93EF93FF93EA
:1016F0008DE693E00E949705FF91EF91BF91AF9126
:101700009F918F917F916F915F914F913F912F9119
:101710000F900BBE0F900FBE0F901F9018951F9249
:101720000F920FB60F9211240BB60F922F933F9387
:101730004F935F936F937F938F939F93AF93BF93D9
:10174000EF93FF938DE693E00E942305FF91EF91C5
:10175000BF91AF919F918F917F916F915F914F91C9
:101760003F912F910F900BBE0F900FBE0F901F90C7
:1017700018951F920F920FB60F9211240BB60F926D
:101780002F933F934F935F936F937F938F939F9389
:10179000AF93BF93EF93FF938AE094E00E94970585
:1017A000FF91EF91BF91AF919F918F917F916F9139
:1017B0005F914F913F912F910F900BBE0F900FBEF5
:1017C0000F901F9018951F920F920FB60F92112431
:1017D0000BB60F922F933F934F935F936F937F932B
:1017E0008F939F93AF93BF93EF93FF938AE094E01F
:1017F0000E942305FF91EF91BF91AF919F918F912F
:101800007F916F915F914F913F912F910F900BBE00
:101810000F900FBE0F901F9018951F920F920FB64A
:101820000F9211240BB60F922F933F934F935F9318
:101830006F937F938F939F93AF93BF93EF93FF9398
:1018400087EA94E00E949705FF91EF91BF91AF91D5
:101850009F918F917F916F915F914F913F912F91C8
:101860000F900BBE0F900FBE0F901F9018951F92F8
:101870000F920FB60F9211240BB60F922F933F9336
:101880004F935F936F937F938F939F93AF93BF9388
:10189000EF93FF9387EA94E00E942305FF91EF9175
:1018A000BF91AF919F918F917F916F915F914F9178
:1018B0003F912F910F900BBE0F900FBE0F901F9076
:1018C00018951F920F920FB60F9211240BB60F921C
:1018D0002F933F934F935F936F937F938F939F9338
:1018E000AF93BF93EF93FF93809145050E94BA0297
:1018F0002091490530914A052F5F3F4F30934A05AB
:101900002093490590914805953618F096E09093FC
:10191000440590914405943009F466C0B8F49230BF
:10192000F1F0933009F444C090914705992309F4EC
:101930006BC081117CC080914605882309F463C087
:101940008091460561E00E94E3025EC0953009F493
:1019500057C0963049F791E0909315064FC081111A
:10196000E3CF2091490530914A052436310528F40A
:1019700010924A0510924905D7CF10921506109281
:101980004805E091480591E09E0F90934805F0E0EE
:101990002091490530914A05EE0FFF1FEC5BFA4F8D
:1019A0003087278310924A051092490593E019C0A9
:1019B000813009F0B9CFE091480591E09E0F9093F6
:1019C0004805F0E02091490530914A05EE0FFF1FD0
:1019D000EC5BFA4F3087278310924A051092490535
:1019E00094E090934405A0CF882359F220914905B3
:1019F00030914A052536310508F496CF95E0F1CFB0
:101A0000811192CFB5CF2F9AFF91EF91BF91AF91F6
:101A10009F918F917F916F915F914F913F912F9106
:101A20000F900BBE0F900FBE0F901F9018958091D6
:101A30004605882321F08091460560E084CF2F98E9
:101A4000E3CF1F920F920FB60F9211240BB60F9295
:101A50002F933F934F935F936F937F938F939F93B6
:101A6000AF93BF93CF93DF93EF93FF9380917B026C
:101A7000C0915206D0E087FF23C0109285001092DB
:101A8000840080917B028F5F80937B0280917B0238
:101A9000082E000C990B8C179D0724F480917B0273
:101AA0008C3074F1809184009091850084349C493D
:101AB00008F465C08091840090918500049661C00F
:101AC00080917B02082E000C990B8C179D07CCF699
:101AD00030917B0225E03203F0011124EA5EF94FD8
:101AE000808186FFCECF30917B023203F00111243A
:101AF000EA5EF94F808160E08F730E94E302C1CFFC
:101B0000809184009091850030917B0225E0320322
:101B1000F0011124EA5EF94F41815281840F951F33
:101B2000909389008093880030917B023203F0010A
:101B30001124EA5EF94F808186FF0CC030917B0250
:101B40003203F0011124EA5EF94F808161E08F7366
:101B50000E94E302FF91EF91DF91CF91BF91AF918E
:101B60009F918F917F916F915F914F913F912F91B5
:101B70000F900BBE0F900FBE0F901F90189580E432
:101B80009CE990938900809388008FEF80937B027B
:101B9000E1CF109264031092630388EE93E0A0E01B
:101BA000B0E08093650390936603A0936703B093BE
:101BB000680323E132E030936203209361031092C3
:101BC000700310926F038093710390937203A0933C
:101BD0007303B093740325E232E030936E032093D5
:101BE0006D0345E351E050937A034093790344E356
:101BF00051E050937C0340937B0340E351E05093CA
:101C00007E0340937D0341E351E050938003409372
:101C10007F0342E351E0509382034093810346E304
:101C200051E05093840340938303109286031092F3
:101C30008703109288031092890310920D0410926A
:101C40000C0480930E0490930F04A0931004B0939F
:101C5000110430930B0420930A0445ED50E0509397
:101C600017044093160444ED50E050931904409338
:101C7000180440ED50E050931B0440931A0441EDCA
:101C800050E050931D0440931C0442ED50E05093EB
:101C90001F0440931E0446ED50E0509321044093EE
:101CA0002004109223041092240410922504109210
:101CB00026041092AA041092A9048093AB04909376
:101CC000AC04A093AD04B093AE043093A804209369
:101CD000A70485EC90E09093B4048093B30484EC63
:101CE00090E09093B6048093B50480EC90E09093DC
:101CF000B8048093B70481EC90E09093BA04809389
:101D0000B90482EC90E09093BC048093BB0486EC11
:101D100090E09093BE048093BD041092C004109292
:101D2000C1041092C2041092C304809107029091E2
:101D30000802A0910902B0910A0280933C07909397
:101D40003D07A0933E07B0933F0780910B0290910F
:101D50000C02A0910D02B0910E0280934007909367
:101D60004107A0934207B093430784E08093440760
:101D700087E0809345071092460784EB80934707DE
:101D800086E18093480788E18093490787E1809343
:101D90004A0789E180934B07E0915206EC3008F442
:101DA000AAC08FEF80934C07E0915206EC3008F404
:101DB000B3C08FEF80934D078CE080931B0784E2C4
:101DC00080931C0786E080931D0785E080931E07A3
:101DD0008FE180931F078EE18093200783E2809339
:101DE000210782E28093220785E48093230784E41D
:101DF0008093240780E48093270710922C07109289
:101E00002D0710922E0710922F0710923007109274
:101E100031071092320710923307EDE5F6E02BE11F
:101E200037E08FEF9FEFDC0112821382148215825C
:101E3000168217821086118683879487A587B687B6
:101E40008787908BA18BB28B12861182108273963A
:101E50002E173F0749F78DE090E00E942F15FC01F7
:101E60001382128287E392E091838083118687E256
:101E7000848384E1828784E083871486F0935A0602
:101E8000E093590610925B0610925C0685E28093FF
:101E90004505109247051092540610925306109271
:101EA000560610925506109258061092570661E099
:101EB00070E090E080E00E9454160097F1F190935A
:101EC00054068093530610925606109255062091A0
:101ED000570630915806232B11F4FC011082109202
:101EE00058061092570661E472E080915306909173
:101EF00054060C943E1781E08E0F80935206E093B7
:101F00004C0785E0E89FF0011124EA5EF94F88EB69
:101F10009BE09283818348CF81E08E0F80935206AD
:101F2000E0934D0785E0E89FF0011124EA5EF94F48
:101F300088EB9BE0928381833FCF80915306909101
:101F40005406009711F00E94CB151092540610927F
:101F50005306109258061092570610925606109289
:101F600055060895CF93DF9300D000D01F921F92A3
:101F7000CDB7DEB7789484B5826084BD84B58160C6
:101F800084BD85B5826085BD85B5816085BD809144
:101F90006E00816080936E001092810080918100BC
:101FA00082608093810080918100816080938100B4
:101FB000809180008160809380008091B100846076
:101FC0008093B1008091B00081608093B0008091D7
:101FD0009100826080939100809191008160809354
:101FE0009100809190008160809390008091A10089
:101FF00082608093A1008091A10081608093A10004
:102000008091A00081608093A00080912101826076
:102010008093210180912101816080932101809131
:10202000200181608093200180917A0084608093F8
:102030007A0080917A00826080937A0080917A00A1
:10204000816080937A0080917A00806880937A0022
:102050001092C100E091B704F091B80482E080834F
:10206000E091B304F091B4041082E091B504F091D2
:10207000B6048FEC80831092BF04E091BB04F09112
:10208000BC0486E08083E091B904F091BA048081B9
:1020900080618083E091B904F091BA048081886006
:1020A0008083E091B904F091BA04808180688083D4
:1020B000E091B904F091BA0480818F7D808361E062
:1020C00080911C070E94500360E080911C070E94D1
:1020D000E30260E080911B070E94500381E693E0D9
:1020E00090932607809325071092C6021092C5028E
:1020F00010923E03109260030E9411038BEC91E05A
:102100009093E9028093E8028CEC91E09093ED02C9
:102110008093EC0280E090E1A0E0B0E0809328079B
:1021200090932907A0932A07B0932B078AE090E0A9
:10213000A0E0B0E080932C0790932D07A0932E078A
:10214000B0932F0780E090E0A0E0B0E480933007E8
:1021500090933107A0933207B093330760E070E1AA
:1021600085E00E948D046FE979E380E00E948D0490
:102170000DE117E02BE137E03A832983E0E46E2E8E
:10218000E2E07E2EF6E84F2EF2E05F2EABECAA2EB8
:10219000A7E0BA2ED80112969C91F80181918F0187
:1021A000A981BA8159968C9359975A969C9361E06C
:1021B0000E94500361E0E981FA81828D0E94500300
:1021C00089809A80FDE18F0E911CD80115969C9113
:1021D000159713968C91E981FA81858F968F61E02E
:1021E0000E94500360E0A981BA815E968C910E94A2
:1021F000500361E0E981FA81858D0E94E302FFB618
:10220000F89480918102811125C0F3018491F2013B
:102210009491E82FF0E0EE0FFF1FE354FE4FA591DD
:10222000B4918C91982321F461E085E30E94E3024C
:1022300061E085E30E9450038CB580618CBD8CB554
:1022400080648CBD61E084E30E94500361E083E31D
:102250000E945003809181028F5F80938102FFBEB4
:10226000C5010197F1F760E0A981BA815D968C9173
:102270000E94E30288E80E94750783E00E947507C8
:1022800061E0E981FA81858D0E94E302C501019731
:10229000F1F7C4010E947C0729813A812E5F3F4FEC
:1022A0003A8329832F51374009F074CF00E417E0B7
:1022B0008CE397E09A83898360E0D8018D918D014A
:1022C0000E945003B7E004341B07B1F70CE317E09A
:1022D00045E0F42E5CE0A52E62E0B62EE981FA819D
:1022E00080898C3008F049C0908461E0892D0E947B
:1022F0005003A981BA8150968C91F89EF001112467
:10230000EA5EF94F292D2F739081907C922B908358
:10231000138214826A2D0E9401148A9DA001112447
:1023200030E020E0BA01620F731FF69EF001F79EC5
:10233000F00D1124EA5EF94F908196FD12C02F5FD7
:102340003F4F2C30310571F781110BC01092800086
:10235000B09281001092850010928400B6BAB092BB
:102360006F00A981BA815096EC91FE9EF001112474
:10237000EA5EF94F808180648083E981FA819685E5
:102380008485D80152968C93529753969C9360E023
:102390000E94500361E0F80183890E94500360E0CD
:1023A000D80153968C910E94E302E981FA8131961B
:1023B000FA83E9830E5F1F4FF7E000341F0709F02F
:1023C0008DCFF8941092200189E08093210180E262
:1023D00093E0909329018093280110922501109297
:1023E000240182E0809373007894809344051092D6
:1023F00048058091450560E00E94500360E080E35D
:102400000E94500360E081E30E94500364E670E0A4
:1024100080E090E00E94C40482E492E00E94FB0805
:10242000809143070E94BA02892B31F021E030E00D
:1024300030939B0220939A02809142070E94BA0235
:10244000892B99F010929B0210929A0240E050E082
:1024500060E070E886E397E00E944E0640E050E0BE
:10246000BA0184E397E00E944E0680919A0290910F
:102470009B02892B09F49AC088E397E00E94A70782
:102480004B015C018AE397E00E94A70769837A8386
:102490008B839C8380918E0290918F02A0919002F9
:1024A000B09191028D839E83AF83B887AC01BD014B
:1024B00084E397E00E944E06409086025090870287
:1024C0006090880270908902B301A201705886E37F
:1024D00097E00E944E0688279927DC018819990900
:1024E000AA09BB091FE1E12E15E8F12E0AE412E466
:1024F0002AE832E04D815E816F8178850E94240850
:1025000060938E0270938F02809390029093910259
:10251000E12CF12C08E412E422E832E0B301A2013C
:1025200089819A810E9424086093860270938702B1
:1025300080938802909389028091960290919702ED
:10254000A0919802B091990288199909AA09BB092A
:102550008093960290939702A0939802B093990269
:102560008091920290919302A0919402B091950271
:1025700029813A814B815C81820F931FA41FB51F73
:102580008093920290939302A0939402B093950249
:1025900088E397E00E947C078AE397E00E947C072B
:1025A0006AE070E080E090E00E94C4040E94290686
:1025B00037CF8091530690915406009711F00C94F8
:1025C000CB150895E89409C097FB3EF4909580954B
:1025D000709561957F4F8F4F9F4F9923A9F0F92FE9
:1025E00096E9BB279395F695879577956795B79567
:1025F000F111F8CFFAF4BB0F11F460FF1BC06F5F4D
:102600007F4F8F4F9F4F16C0882311F096E911C05E
:10261000772321F09EE8872F762F05C0662371F07F
:1026200096E8862F70E060E02AF09A95660F771F93
:10263000881FDAF7880F9695879597F90895990F6F
:102640000008550FAA0BE0E8FEEF16161706E8077C
:10265000F907C0F012161306E407F50798F0621B9D
:10266000730B840B950B39F40A2661F0232B242B72
:10267000252B21F408950A2609F4A140A6958FEF91
:10268000811D811D08950E9456130C94C7130E944A
:10269000B91338F00E94C01320F0952311F00C9468
:1026A000B0130C94B61311240C94FB130E94D8138E
:1026B00070F3959FC1F3950F50E0551F629FF00195
:1026C000729FBB27F00DB11D639FAA27F00DB11DAE
:1026D000AA1F649F6627B00DA11D661F829F222737
:1026E000B00DA11D621F739FB00DA11D621F839FBE
:1026F000A00D611D221F749F3327A00D611D231F94
:10270000849F600D211D822F762F6A2F11249F57E1
:1027100050409AF0F1F088234AF0EE0FFF1FBB1FE4
:10272000661F771F881F91505040A9F79E3F5105A3
:1027300080F00C94B0130C94FB135F3FE4F3983ECD
:10274000D4F3869577956795B795F795E7959F5F4D
:10275000C1F7FE2B880F911D9695879597F90895DF
:1027600097F99F6780E870E060E008959FEF80EC44
:10277000089500240A9416161706180609060895E7
:1027800000240A9412161306140605060895092E4D
:102790000394000C11F4882352F0BB0F40F4BF2BBC
:1027A00011F460FF04C06F5F7F4F8F4F9F4F0895FC
:1027B00057FD9058440F551F59F05F3F71F04795F2
:1027C000880F97FB991F61F09F3F79F087950895D7
:1027D000121613061406551FF2CF4695F1DF08C0F6
:1027E000161617061806991FF1CF86957105610513
:1027F00008940895E894BB2766277727CB0197F9BB
:102800000895991B79E004C0991F961708F0961B4C
:10281000881F7A95C9F780950895EE0FFF1F881FCE
:102820008BBF0790F691E02D19945058BB27AA272B
:102830000E942D140C94C7130E94B91338F00E9403
:10284000C01320F039F49F3F19F426F40C94B6130A
:102850000EF4E095E7FB0C94B013E92F0E94D81317
:1028600058F3BA17620773078407950720F079F4C5
:10287000A6F50C94FA130EF4E0950B2EBA2FA02DAA
:102880000B01B90190010C01CA01A0011124FF271D
:10289000591B99F0593F50F4503E68F11A16F04018
:1028A000A22F232F342F4427585FF3CF4695379517
:1028B0002795A795F0405395C9F77EF41F16BA0BDC
:1028C000620B730B840BBAF09150A1F0FF0FBB1F8A
:1028D000661F771F881FC2F70EC0BA0F621F731FD3
:1028E000841F48F4879577956795B795F7959E3F30
:1028F00008F0B0CF9395880F08F09927EE0F9795C1
:10290000879508950E9496140C94C7130E94C013D3
:1029100058F00E94B91340F029F45F3F29F00C945D
:10292000B01351110C94FB130C94B6130E94D813DE
:1029300068F39923B1F3552391F3951B550BBB27EE
:10294000AA2762177307840738F09F5F5F4F220F33
:10295000331F441FAA1FA9F335D00E2E3AF0E0E82A
:1029600032D091505040E695001CCAF72BD0FE2F74
:1029700029D0660F771F881FBB1F26173707480708
:10298000AB07B0E809F0BB0B802DBF01FF279358C0
:102990005F4F3AF09E3F510578F00C94B0130C94C1
:1029A000FB135F3FE4F3983ED4F3869577956795E4
:1029B000B795F7959F5FC9F7880F911D96958795F5
:1029C00097F90895E1E0660F771F881FBB1F621714
:1029D00073078407BA0720F0621B730B840BBA0BD2
:1029E000EE1F88F7E09508950E94FB146894B111DA
:1029F0000C94FB1308950E94E01388F09F5798F001
:102A0000B92F9927B751B0F0E1F0660F771F881FF3
:102A1000991F1AF0BA95C9F714C0B13091F00E940D
:102A2000FA13B1E008950C94FA13672F782F8827D2
:102A3000B85F39F0B93FCCF3869577956795B39534
:102A4000D9F73EF490958095709561957F4F8F4FA3
:102A50009F4F08950E941F1308F48FEF08950F935E
:102A60001F93CF93DF938230910510F482E090E0C2
:102A7000E0915407F091550730E020E0B0E0A0E08D
:102A8000309799F42115310509F44AC0281B390BF8
:102A900024303105D8F58A819B816115710589F152
:102AA000FB0193838283FE0111C040815181028129
:102AB000138148175907E0F04817590799F4109700
:102AC00061F012960C93129713961C933296CF01D5
:102AD000DF91CF911F910F910895009354071093A8
:102AE0005507F4CF2115310551F04217530738F03F
:102AF000A901DB019A01BD01DF01F801C1CFEF019E
:102B0000F9CF9093550780935407CDCFFE01E20F84
:102B1000F31F819391932250310939832883D7CFB2
:102B20002091520730915307232B41F42091030247
:102B300030910402309353072093520720910102F1
:102B4000309102022115310541F42DB73EB7409175
:102B5000050250910602241B350BE0915207F091BB
:102B60005307E217F307A0F42E1B3F0B2817390772
:102B700078F0AC014E5F5F4F2417350748F04E0FD9
:102B80005F1F5093530740935207819391939FCFB8
:102B9000F0E0E0E09CCFCF93DF930097E9F0FC01F9
:102BA000329713821282A0915407B0915507ED011C
:102BB00030E020E01097A1F420813181820F931F33
:102BC00020915207309153072817390709F061C047
:102BD000F0935307E0935207DF91CF910895EA01F4
:102BE000CE17DF07E8F54A815B819E01411551054B
:102BF000B1F7E901FB83EA8349915991C40FD51FCD
:102C0000EC17FD0761F4808191810296840F951F76
:102C1000E90199838883828193819B838A83F0E091
:102C2000E0E012968D919C9113970097B9F52D9144
:102C30003C911197CD010296820F931F209152076C
:102C4000309153072817390739F6309751F510920C
:102C5000550710925407B0935307A0935207BCCF67
:102C6000D383C28340815181840F951FC817D90730
:102C700061F44E5F5F4F88819981480F591F5183DE
:102C800040838A819B81938382832115310509F0DA
:102C9000B0CFF0935507E09354079ECFFD01DC01C0
:102CA000C0CF13821282D7CF4F925F926F927F92E2
:102CB0008F929F92AF92BF92CF92DF92EF92FF924C
:102CC0000F931F93CF93DF938C01009799F4CB015F
:102CD000DF91CF911F910F91FF90EF90DF90CF90F8
:102CE000BF90AF909F908F907F906F905F904F902C
:102CF0000C942F15FC01E60FF71F9C01225031099F
:102D0000E217F30708F4AEC0D901CD91DC91119719
:102D1000C617D70720F1C530D10578F0CE0104974A
:102D20008617970750F0C61BD70B2297C193D193F4
:102D30006D937C93CF010E94CB15C801DF91CF9199
:102D40001F910F91FF90EF90DF90CF90BF90AF90C9
:102D50009F908F907F906F905F904F9008955B0150
:102D6000AC1ABD0A4C018C0E9D1EA0915407B09167
:102D70005507512C412CF12CE12C109731F5809105
:102D80005207909153078815990509F05CC04616C3
:102D9000570608F058C080910102909102020097F6
:102DA00041F48DB79EB74091050250910602841BF5
:102DB000950BE817F90708F055C0F0935307E09317
:102DC0005207F90171836083B8CF8D919C9111975F
:102DD00012966C90129713967C901397A815B905CC
:102DE00059F56C0142E0C40ED11CCA14DB0420F179
:102DF000AC014A195B09DA011296159780F06282DC
:102E0000738251834083D9016D937C93E114F10463
:102E100071F0D7011396FC93EE9312978ECF229602
:102E20008C0F9D1FF90191838083F301EFCFF09305
:102E30005507E093540781CF4816590608F42C0132
:102E40007D01D3019ACFCB010E942F157C01009701
:102E500049F0AE01B8010E943517C8010E94CB1598
:102E600087016BCF10E000E068CFFB01DC0102C0FE
:102E700001900D9241505040D8F70895FB01DC01BC
:102E800001900D920020E1F7089511E0C0E7D1E034
:102E900000E006C0802FFE010E940D142196011D46
:0E2EA000C137D10780E00807A9F7F894FFCFEB
:102EAE00FF000056078000363738391B1D1A1C00EC
:102EBE000000002402F7012108CD01F001DD01CE52
:102ECE000100000000B905F6043C0506066D054B31
:102EDE00055F0500000000D708F604210820080D44
:102EEE000A00496E697469616C69736174696F6E09
:0A2EFE0020636F6D706C6574650051
:00000001FF
