:100000000C9471010C94A2010C94A2010C94A20115
:100010000C94A2010C94A2010C94A2010C94A201D4
:100020000C94A2010C94D30E0C94D30E0C94D30E0A
:100030000C94A2010C944B100C94A2010C94A201FC
:100040000C94A2010C94A4120C94A2010C94A20191
:100050000C94A2010C94A2010C94A2010C94011026
:100060000C94A2010C94BA110C9490110C94A2015E
:100070000C94A2010C94A2010C94A2010C94A20174
:100080000C94A2010C94A2010C94A2010C94A20164
:100090000C94A2010C94A2010C94A2010C94DD0E0C
:1000A0000C94A2010C94A2010C94A2010C94A20144
:1000B0000C94A2010C94A2010C94A2010C94E411E2
:1000C0000C94A2010C94A2010C94A2010C94661150
:1000D0000C943C110C94A2010C9412110C94E81095
:1000E0000C94A2010C94CE070C94F4020C946307B8
:1000F0000C949A070C940B070C94C2170C942E02C4
:100100000C9409020C94CD070C942B070C94440614
:100110000C940B020C9462020C94E2020C943507CE
:100120000C94BD020C943F070C94AF020C94E602B1
:100130000C9459070C941B020C94F0020C947C074D
:100140000C94A4070C946D070C94B9020C940A0249
:100150000C94CA020C9489050C94C4020C941C07DC
:100160000C94EA020C94F2080C9490070C94D802B8
:100170000C94B5020C94AE070C947A050C94EF0223
:100180000C944F070C9447070C94C1020C9434054F
:100190000C940C020C944C130C94DC020C94CE02C4
:1001A0000C94AB050C94F7050C9421070C943502C4
:1001B0000C94D4020C9486070C949D050200002137
:1001C00000240027002A002D003000330001010028
:1001D00000040107010A0100002200250028002B6D
:1001E000002E003100340002010000050108010B5F
:1001F00001000020002300260029002C002F0032DF
:1002000000000100000301060109010505050507BD
:100210000508080808020202020A0A080804040481
:1002200004010101010101010103030303030303AD
:1002300003040707070C0C0C0C0C0C0C0C0202023C
:100240000206060606060606060B0B0B0B0B0B0B2F
:100250000B010210202008081020401020408002CE
:1002600001020108040201010204081020408080FC
:100270004020100804020180040201804020100880
:100280000402010804020101020408102040800158
:100290000204081020408000000A0B02090C0D0E19
:1002A0000807030401000000000000000000000037
:1002B000000000000000000000000000000000003E
:1002C00000000012111000000000000000000000FB
:1002D00000000000000000000000000000004C13BF
:1002E000C21711241FBECFEFD1E2DEBFCDBF00E0A9
:1002F0000CBF13E0A0E0B2E0EAEDF8E300E00BBFD2
:1003000002C007900D92A239B107D9F729E0A2E9FE
:10031000B3E001C01D92AF3CB207E1F711E0C0E7C6
:10032000D1E000E006C021970109802FFE010E9464
:100330000F19CF36D10780E00807A9F70E943515BD
:100340000C945B1C0C940000E0E2F7E0A089B189FA
:1003500082E08C93A485B5851C92A685B7858FEC29
:100360008C93108EA489B58986E08C93A289B38979
:100370008C9180618C93A289B3898C9188608C93D5
:10038000A289B3898C9180688C930288F389E02DCF
:1003900080818F7D8083089580917B00877F80930B
:1003A0007B0081E480937C0080917A00806480935C
:1003B0007A0080917A0086FDFCCF80917800909140
:1003C0007900089520916305260F3327331F2132CA
:1003D0003105ECF42091B005FC0190E080E0243080
:1003E00069F082E00895A09163052191AC014F5B13
:1003F0005A4FA40FB52FB11D2C930196861798F371
:1004000080916305680F6093630580E0089581E043
:100410000895089508950895E0913F0580913E055F
:10042000E81730F4F0E0E25EFA4F808190E0089542
:100430008FEF9FEF089590913F0580913E052FEF3C
:100440003FEF981748F4E92FF0E0E25EFA4F208181
:1004500030E09F5F90933F05C901089580913E056C
:1004600090913F05891B990B0895CF92DF92EF92EF
:10047000FF920F931F93CF93DF937C01CB018A01EF
:100480002091B605222389F0EB016B01C40ED51E25
:10049000CC15DD0569F06991D701ED91FC910190D2
:1004A000F081E02DC7011995F3CF642F0E94E2017E
:1004B000C801DF91CF911F910F91FF90EF90DF90D6
:1004C000CF900895CF93DF931F92CDB7DEB76983A6
:1004D0002091B6052223F9F02091D905203258F059
:1004E00021E030E0FC013383228390E080E00F9034
:1004F000DF91CF9108958091B705E82FF0E0E8549F
:10050000FA4F998190838F5F8093B7058093D905C7
:1005100081E090E0ECCF61E0CE0101960E94E20123
:10052000F7CF8150823108F05AC0E82FF0E08827D9
:10053000E356FD4F8F4F0C940F19BD02C102AF025D
:10054000B502B902EF02C402CA02CE02D402D80236
:10055000DC02E202E602EF02EA02F002F40280911B
:1005600080008F77809380000895809180008F7D38
:10057000F9CF80918000877FF5CF84B58F7784BDD8
:10058000089584B58F7DFBCF8091B0008F778093E5
:10059000B00008958091B0008F7DF9CF80919000D8
:1005A0008F77809390000895809190008F7DF9CF90
:1005B00080919000877FF5CF8091A0008F77809306
:1005C000A00008958091A0008F7DF9CF8091A000B8
:1005D000877FF5CF809120018F7780932001089548
:1005E000809120018F7DF9CF80912001877FF5CF09
:1005F000CF93DF93282F30E0F901E956FD4F849126
:10060000F901EF5AFD4FD491F901E55FFD4FC49117
:10061000CC23A1F081110E949102EC2FF0E0EE0FAB
:10062000FF1FEF50FE4FA591B491EC91ED2381E0B7
:1006300090E009F480E0DF91CF91089580E090E0B0
:10064000FACF1F93CF93DF93282F30E0F901E956BB
:10065000FD4F8491F901EF5AFD4FD491F901E55F07
:10066000FD4FC491CC23A9F0162F81110E94910255
:10067000EC2FF0E0EE0FFF1FE952FE4FA591B49171
:100680008FB7F894EC91111108C0D095DE23DC935C
:100690008FBFDF91CF911F910895DE2BF8CF10927D
:1006A000B00581E08093AF0510928A0561E084E196
:1006B0000E94210361E085E10E942103E9EBF0E063
:1006C00080818E7F808380818D7F808388E480938A
:1006D000B80085E48093BC000895CF93DF9391E048
:1006E000909340058823B9F0C091B800D091BA002A
:1006F0008091BC008A7B8093BC0060E084E10E9412
:10070000210360E085E10E9421030E944F03D09302
:10071000BA00C093B800DF91CF910895CF93DF93D3
:1007200090E0FC01EF5AFD4F2491855F9D4FFC0145
:1007300084918823D1F090E0880F991FFC01E35445
:10074000FE4FA591B491FC01E952FE4FC591D491A1
:1007500061110EC09FB7F8948C91E22FE0958E2323
:100760008C932881E223E8839FBFDF91CF91089586
:100770008FB7F894EC91E22BEC938FBFF6CF3FB795
:10078000F89480911A0590911B05A0911C05B091D9
:100790001D0526B5A89B05C02F3F19F00196A11D88
:1007A000B11D3FBFBA2FA92F982F8827BC01CD01BB
:1007B000620F711D811D911D42E0660F771F881F1A
:1007C000991F4A95D1F70895CF92DF92EF92FF9249
:1007D0000F931F93CF93DF93D091D90581E0D1324E
:1007E00008F09CC0C091D8050E94BF036B017C013A
:1007F0008091B00581116CC082E08093B00581E0EA
:100800008093AF058FEF8093AE051092AD05D09326
:10081000AC05A8EBB5E0ECE8F5E080E0D8138DC0BE
:1008200010928B0580918B05CC0FC82BC0938B0544
:1008300080918A05813009F084C010928A050E9457
:10084000BF036B017C0180918B058093BB0080917D
:10085000B2059091B305A091B405B091B505892B6F
:100860008A2B8B2BA1F00E94BF030091B20510913F
:10087000B3052091B4053091B5056C197D098E0939
:100880009F09061717072807390708F442C0809107
:10089000BC0083FDD8CF85EC8093BC000E94BF03D1
:1008A0006B017C018091B005823009F44CC08091CD
:1008B000AE058F3F09F469C08091AE05803209F41E
:1008C00066C08091AE05803309F463C084E026C021
:1008D0008091B2059091B305A091B405B091B50592
:1008E000892B8A2B8B2B09F483CF0E94BF030091A5
:1008F000B2051091B3052091B4053091B5056C197E
:100900007D098E099F09061717072807390708F080
:100910006FCF8091B1050E946D0385E01092B705FD
:100920001092D9051092B605DF91CF911F910F91CA
:10093000FF90EF90DF90CF9008959D9191938F5FFE
:100940006DCF85EEA9CF8091B2059091B305A091AE
:10095000B405B091B505892B8A2B8B2B09F4A2CF56
:100960000E94BF030091B2051091B3052091B40518
:100970003091B5056C197D098E099F090617170777
:100980002807390708F08ECFC4CF80E0C7CF82E0B8
:10099000C5CF83E0C3CF0F931F93CF93DF93162F61
:1009A000072FC4E9D9E0AA85BB859C8521E0209367
:1009B000B6059093D8051092B7051092D905ED9120
:1009C000FC9111970190F081E02D682FCD011995D0
:1009D0008A859B85DC01ED91FC910190F081E02DF1
:1009E000602F19958A859B85DC01ED91FC91019022
:1009F000F081E02D612F1995DF91CF911F910F911B
:100A00000C94E4038F929F92AF92BF92CF92DF92A9
:100A1000EF92FF924B015C010E94BF036B017C01CE
:100A20000E94BF036C197D098E099F09683E7340BF
:100A300081059105A8F321E0821A9108A108B10867
:100A400088EEC80E83E0D81EE11CF11C81149104CD
:100A5000A104B10429F7FF90EF90DF90CF90BF90F1
:100A6000AF909F908F900895AF92BF92CF92DF92F8
:100A7000EF92FF920F931F93CF93DF936C017B0153
:100A80008B01040F151FEB015E01AE18BF08C017E4
:100A9000D10759F06991D601ED91FC910190F08157
:100AA000E02DC6011995892B79F7C501DF91CF910A
:100AB0001F910F91FF90EF90DF90CF90BF90AF907C
:100AC0000895FC01A089B1898C91A689B78982FD1E
:100AD0000FC09C91818D8F5F8F73228D821749F09B
:100AE000A18DAE0FBF2FB11D5D969C93818F089590
:100AF0008C910895FC01538D448D252F30E0842F77
:100B000090E0821B930B541710F0CF960895019735
:100B10000895FC01918D828D981761F0A28DAE0F22
:100B2000BF2FB11D5D968C91928D9F5F9F73928FA9
:100B300090E008958FEF9FEF0895FC01918D828DD5
:100B4000981731F0828DE80FF11D858D90E00895A2
:100B50008FEF9FEF0895FC01918D228D892F90E0FA
:100B6000805C9F4F821B91098F739927089586EEB1
:100B700095E00E94AB0521E0892B09F420E0822F4B
:100B8000089583E896E00E94AB0521E0892B09F4E3
:100B900020E0822F089580E297E00E94AB0521E0DB
:100BA000892B09F420E0822F0895FC01A48DA80F61
:100BB000B92FB11DA35ABF4F2C91848D90E001969F
:100BC0008F739927848FA689B7892C93A089B189BF
:100BD0008C91837080648C93938D848D981306C060
:100BE0000288F389E02D80818F7D80830895EF92C4
:100BF000FF920F931F93CF93DF93EC0181E0888FD7
:100C00009B8D8C8D98131AC0E889F989808185FFA6
:100C100015C09FB7F894EE89FF896083E889F98948
:100C200080818370806480839FBF81E090E0DF914A
:100C3000CF911F910F91FF90EF900895F62E0B8D9D
:100C400010E00F5F1F4F0F731127E02E8C8D8E1158
:100C50000CC00FB607FCFACFE889F989808185FFBF
:100C6000F5CFCE010E94D505F1CFEB8DEC0FFD2F16
:100C7000F11DE35AFF4FF0829FB7F8940B8FEA897A
:100C8000FB8980818062CFCFCF93DF93EC01888D89
:100C90008823B9F0AA89BB89E889F9898C9185FDF7
:100CA00003C0808186FD0DC00FB607FCF7CF8C9185
:100CB00085FFF2CF808185FFEDCFCE010E94D50563
:100CC000E9CFDF91CF910895F0E0E0E0199480E062
:100CD00090E0892B29F00E94CB0581110E94000031
:100CE00080E090E0892B49F080E090E0892B29F0AA
:100CF0000E94000081110E9400000E94C105811124
:100D00000E94640680E090E0892B29F00E94B705DC
:100D100081110C94000008958F929F92AF92BF9220
:100D2000CF92DF92EF92FF920F931F93CF93DF93B7
:100D3000EC016A017B0120E030E04FE753E4CB0196
:100D4000B6010E9431184B015C0120E030E0A9019E
:100D50000E94401A18168CF5C501B4010E940A1AA7
:100D60008B01B98020E030E0A901C701B6010E94E3
:100D7000401A60E018160CF061E08B2D0E942103F0
:100D80000F3F110509F0ECF41127C88161E08C2FA9
:100D90000E948E0301151105B9F460E08C2FDF91DC
:100DA000CF911F910F91FF90EF90DF90CF90BF9068
:100DB000AF909F908F900C942103C501B40190587F
:100DC000CDCF0FEF10E0E1CF0F3F110511F461E03F
:100DD000E5CFEC2FF0E0E956FD4FE491E150E23130
:100DE00008F0BCC0F0E08827E750F94F8F4F0C9413
:100DF0000F190B071C0721072B073507AE073F0705
:100E000047074F07590763076D077C078607AE073B
:100E100090079A07A40784B5806884BD07BDDF9159
:100E2000CF911F910F91FF90EF90DF90CF90BF90E7
:100E3000AF909F908F90089584B5806284BD08BD67
:100E4000EECF8091800080688093800010938900AD
:100E500000938800E4CF80918000806280938000BE
:100E600010938B0000938A00DACF80918000886015
:100E70008093800010938D0000938C00D0CF8091E0
:100E8000B00080688093B0000093B300C8CF809119
:100E9000B00080628093B0000093B400C0CF809116
:100EA00090008068809390001093990000939800C0
:100EB000B6CF8091900080628093900010939B0049
:100EC00000939A00ACCF809190008860809390004E
:100ED00010939D0000939C00A2CF8091A000806899
:100EE0008093A0008091A0008F7B8093A00010933E
:100EF000A9000093A80093CF8091A0008062809306
:100F0000A0001093AB000093AA0089CF8091A000AD
:100F100088608093A0001093AD000093AC007FCF59
:100F20008091200180688093200110932901009313
:100F3000280175CF80912001806280932001109359
:100F40002B0100932A016BCF809120018860809350
:100F5000200110932D0100932C0161CF0038110561
:100F60000CF035CF1ACF8EBD00000DB407FEFDCFBB
:100F70008EB50895FC01248131E03093B6052093AD
:100F8000D8051092B7051092D9058485682B8AED93
:100F900095E00E9462020C94E403089590E080E0E2
:100FA00008954F925F926F927F928F929F92AF922D
:100FB000BF92CF92DF92EF92FF920F931F93CF9346
:100FC000DF9300D000D0CDB7DEB749835A836B835F
:100FD0007C833E832D836701BC01990F880B990B9D
:100FE0000E94D2179B01AC01C801B6010E942B19C7
:100FF0006B017C012AE037ED43E25CE30E9431188B
:101000002091FF04309100054091010550910205A7
:101010000E942C194B015C018092FF049092000504
:10102000A0920105B09202052091FB043091FC04CE
:101030004091FD045091FE04C701B6010E94311891
:101040002B013C012091F7043091F8044091F90400
:101050005091FA04C501B4010E9431189B01AC0102
:10106000C301B2010E942C194B015C01ED81FE818C
:101070002081318142815381C701B6010E942B1921
:101080002AE037ED43E25CE30E9498192091F304D3
:101090003091F4044091F5045091F6040E94311807
:1010A0009B01AC01C501B4010E942C196093EF04AF
:1010B0007093F0048093F1049093F204ED81FE812B
:1010C000C082D182E282F38227E137EB41ED58E31F
:1010D0000E94311829813A814B815C810E942C1930
:1010E00026960FB6F894DEBF0FBECDBFDF91CF912D
:1010F0001F910F91FF90EF90DF90CF90BF90AF9036
:101100009F908F907F906F905F904F900895CF93B6
:10111000DF93CDB7DEB7CC52D1400FB6F894DEBF27
:101120000FBECDBF8CE291E0EFE0F2E0DE01119660
:1011300001900D920197E1F790E080E0A1E0B0E02E
:10114000AC0FBD1FA80FB91FFC01ED53FC4F2AE0E7
:1011500030E04D915C9111975183408312964D91EF
:101160005C9113975383428314964D915C9115972C
:101170005583448316964D915C9117975783468308
:1011800018964D915C9119975187408721503109EC
:101190001A963A9621153105E1F68C599F4F8C32FB
:1011A00021E0920759F6C45DDE4F0FB6F894DEBF1A
:1011B0000FBECDBFDF91CF9108950F931F93CF93B3
:1011C0008C01C62F64600E94BA076C2F6B7FC80128
:1011D0000E94BA0783EC90E00197F1F7CF911F913D
:1011E0000F9108950F931F93CF93DF938C01C62F18
:1011F000D62FD07FD1606D2F0E94BA076D2FC80106
:101200000E94DD0880E1C89FE0011124C1606C2FBD
:10121000C8010E94BA076C2FC8010E94DD0881E056
:1012200090E0DF91CF911F910F9108952F923F92FF
:101230004F925F926F927F928F929F92AF92BF92E6
:10124000CF92DF92EF92FF920F931F93CF93DF9392
:1012500000D01F92CDB7DEB76C016AE570E00E9446
:10126000FB187C836B83312C212C9B0131952195BC
:1012700031093A83298382EB482E83E8582E86E091
:10128000682E85E4782E8B819C8197FF02C089812E
:101290009A81281639060CF09EC08FE692E1A3E0F1
:1012A000BBE38093FB049093FC04A093FD04B093F4
:1012B000FE041092F7041092F8041092F9041092B0
:1012C000FA048DEC9CECACE4BDE38093F3049093C2
:1012D000F404A093F504B093F604D7FC67C082EB46
:1012E00093E8A6E0B5EC8093040290930502A093E6
:1012F0000602B093070240920002509201026092EF
:10130000020270920302E0900002F090010200914C
:101310000202109103024091BF035091C0036091FB
:10132000C1037091C20327EB33E08091BB0390911E
:10133000BC030E94D1074B015C018092BF039092D5
:10134000C003A092C103B092C203E0900402F090E7
:10135000050200910602109107024091B3035091DB
:10136000B4036091B5037091B6032BEA33E080912A
:10137000AF039091B0030E94D107AB01BC01409331
:10138000B3035093B4036093B5037093B6038DEA2F
:1013900099E00E948C06B501A40170588FEA99E08B
:1013A0000E948C069FEF291A390A6DCF40920402E1
:1013B00050920502609206027092070282EB93E857
:1013C000A6E0B5EC8093000290930102A093020284
:1013D000B093030298CF80910A0590910B05AB81E1
:1013E000BC818A0F9B1F64E070E00E94FB18837031
:1013F000992790930B0580930A050F900F900F90FB
:101400000F90DF91CF911F910F91FF90EF90DF90A0
:10141000CF90BF90AF909F908F907F906F905F9094
:101420004F903F902F900895CF93DF93FC01019050
:101430000020E9F73197AF01481B590BBC0180E24E
:1014400097E00E943405EC0142E050E063E773E06E
:1014500080E297E00E9434058C0F9D1FDF91CF91B1
:1014600008954F925F926F927F928F929F92AF9268
:10147000BF92EF92FF920F931F93CF93DF9300D011
:1014800000D000D01F92CDB7DEB79A878987BC0104
:10149000990F880B990B0E94D21720E030E040E0B2
:1014A0005FE30E9431182FE632E245E75EE30E94D7
:1014B000981920E030E048E455E40E9431182B01EF
:1014C0003C0126E636E646E65FE30E9431184B0112
:1014D0005C016091AF037091B0038091B103909172
:1014E000B2030E94D21769837A838B839C839B010A
:1014F000AC01C501B4010E94401A18160CF086C058
:101500006091BB037091BC038091BD039091BE03B9
:101510000E94D2179B01AC01C501B4010E94401A80
:1015200018160CF073C080E090E0A0E8BFE3809351
:10153000FB049093FC04A093FD04B093FE048DEC97
:101540009CECACECBEE38093F7049093F804A0937A
:10155000F904B093FA048AE999E9A9E1BEE380931A
:10156000F3049093F404A093F504B093F604E09090
:101570000002F090010200910202109103024091DA
:10158000BF035091C0036091C1037091C20327EB68
:1015900033E090E080E00E94D1076D837E838F83EB
:1015A00098876093BF037093C0038093C1039093A7
:1015B000C203E0900402F09005020091060210912F
:1015C00007024091B3035091B4036091B503709149
:1015D000B6032BEA33E090E080E00E94D107AB0134
:1015E000BC014093B3035093B4036093B50370936D
:1015F000B6038DEA99E00E948C064D815E816F8171
:10160000788570588FEA99E00E948C0629813A818A
:101610004B815C81C501B4010E94CB1718160CF4F4
:1016200090C06091BB037091BC038091BD03909109
:10163000BE030E94D2179B01AC01C501B4010E94F8
:10164000CB1718160CF47DC086E793E00E94140AAD
:1016500080E090E0A0E0B0E48093FB049093FC0471
:10166000A093FD04B093FE048DEC9CECACECBEE3C7
:101670008093F7049093F804A093F904B093FA04CC
:101680008AE999E9A9E9BEE38093F3049093F4040D
:10169000A093F504B093F6046091AF037091B0038A
:1016A0008091B1039091B2030E94D2179B01AC01CB
:1016B000C301B2010E94CB1718160CF46AC06091E6
:1016C000BB037091BC038091BD039091BE030E9447
:1016D000D2179B01AC01C301B2010E94CB171816AF
:1016E0000CF457C01092B3031092B4031092B503D8
:1016F0001092B6031092BF031092C0031092C10360
:101700001092C2031092AF031092B0031092B10373
:101710001092B2031092BB031092BC031092BD034F
:101720001092BE0340E050E060E070E88FEA99E07C
:101730000E948C0640E050E0BA018DEA99E00E94D8
:101740008C0660E27EE480E090E00E9402058091D9
:101750000A0590910B058130910509F479C00CF0D0
:1017600057C0892B09F467C02A960FB6F894DEBFDC
:101770000FBECDBFDF91CF911F910F91FF90EF90E2
:10178000BF90AF909F908F907F906F905F904F90A1
:1017900008954091B3035091B4036091B5037091E3
:1017A000B603E12CF12C87012BEA33E090E080E0D6
:1017B0000E94D1072B013C014092B3035092B40325
:1017C0006092B5037092B6034091BF035091C0037D
:1017D0006091C1037091C20327EB33E090E080E099
:1017E0000E94D1074B015C018092BF039092C0031D
:1017F000A092C103B092C203B301A2018DEA99E0A5
:101800000E948C06B501A40170588FEA99E097CF29
:101810008230910551F1039709F0A6CF809112050E
:1018200090911305A985BA85A80FB91FB093130528
:10183000A093120599CF80911005909111052985EB
:101840003A85280F391F30931105209310058CCF4E
:101850008091120590911305A985BA858A1B9B0B6F
:1018600090931305809312057FCF8091100590917E
:10187000110529853A85821B930B9093110580935E
:10188000100572CF0F931F93CF93DF9380911005B4
:10189000909111052091120530911305D5E0D89F44
:1018A000F001D99FF00D1124C2E3C29FC001C39F74
:1018B000900D1124E80FF91F80910A0590910B05F6
:1018C000E80FF91FEE0FFF1FED53FC4F8081918150
:1018D000019751F48BE793E00E94140A81E0DF91B5
:1018E000CF911F910F91089580E30E94F8028C011F
:1018F00081E30E94F802012B49F5892B39F58DE728
:1019000093E00E94140A8091100590911105209196
:10191000120530911305D89FF001D99FF00D1124C5
:10192000C29FC001C39F900D1124E80FF91F809141
:101930000A0590910B05E80FF91FEE0FFF1FED53FD
:10194000FC4F81E090E091838083C9CF8FE793E0E3
:101950000E94140A80E0C3CFCF93DF93CAE0D4E69D
:101960000E94420C81113BC082E090E00E94310A4B
:101970000E94420C80910E0590910F05892B09F071
:1019800051C086EA9FEF0E9416090E94420C811105
:1019900029C081E090E00E94310A80910E0590916B
:1019A0000F059093130580931205892B31F086EA79
:1019B0009FEFDF91CF910C9416090E94420C811188
:1019C00031C081E090E00E94310A80910E05909133
:1019D0000F059093130580931205892B41F7DF9132
:1019E000CF910895809110059091110520911205D5
:1019F00030911305C89FF001C99FF00D1124D29FAB
:101A0000C001D39F900D1124E80FF91FED53FC4F37
:101A100084819581892B31F48AE590E00E94160932
:101A20000E94AC0C80910E0590910F050297B9F6BB
:101A30008AE590E00E9416090E94420C811125C09F
:101A400081E090E00E94310A80910E0590910F058F
:101A50009093130580931205892B19F08AE590E085
:101A6000A8CF0E94420C8111BACF81E090E00E9481
:101A7000310A80910E0590910F0590931305809384
:101A80001205892B09F4ABCFE9CF80911005909115
:101A900011052091120530911305C89FF001C99FCF
:101AA000F00D1124D29FC001D39F900D1124E80F97
:101AB000F91FED53FC4F84819581892B09F08FCF5D
:101AC00086EA9FEF0E9416094BCFCF93DF93DAE0AF
:101AD000C4E681E893E00E94140A8AE590E00E943F
:101AE00016090E94420C882331F086EA9FEFDF91AD
:101AF000CF910C94160981E090E00E94310A0E9477
:101B0000420C86EA9FEF0E9416090E94420C88232D
:101B100009F44EC080911205909113052091100593
:101B200030911105D29FF001D39FF00D1124C89F71
:101B3000D001C99FB00D1124AE0FBF1FAD53BC4FD4
:101B400012962D913C91232B21F20196C89FD00132
:101B5000C99FB00D1124AE0FBF1FAD53BC4F1696D9
:101B60008D919C91892B21F1ED53FC4F80859185BE
:101B7000009779F0DF01A459BF4F8D919C91892B7B
:101B8000A1F0E053FF4F80819181892B31F482E0F5
:101B900090E090930F0580930E0584EB90E00E94F7
:101BA0001609DF91CF910C94AC0C81E090E0F1CF5D
:101BB000DF91CF910895CF93DF93DAE0C4E683E815
:101BC00093E00E94140A86EA9FEF0E9416090E9481
:101BD000420C882331F08AE590E0DF91CF910C949C
:101BE000160981E090E00E94310A0E94420C8AE5C9
:101BF00090E00E9416090E94420C882309F44EC00E
:101C000080911205909113052091100530911105D6
:101C1000D29FF001D39FF00D1124C89FD001C99F1E
:101C2000B00D1124AE0FBF1FAD53BC4F16962D91B2
:101C30003C91232B21F20197C89FD001C99FB00D81
:101C40001124AE0FBF1FAD53BC4F12968D919C91C6
:101C5000892B21F1ED53FC4F80859185009779F018
:101C6000DF01A459BF4F8D919C91892BA1F0E053C6
:101C7000FF4F80819181892B31F482E090E0909335
:101C80000F0580930E0584EB90E00E941609DF910A
:101C9000CF910C94AC0C81E090E0F1CFDF91CF912B
:101CA000089585E893E00E94140A0E94420C811175
:101CB00016C08091100590911105089749F481E0B4
:101CC00090E00E94310A87E893E00E94140AE9CF6D
:101CD00082E090E00E94310A89E893E0F6CF8BE839
:101CE00093E00E94140A80911005909111050997C4
:101CF000D9F08091120590911305009711F40C947E
:101D0000DB0D8230910511F40C94650D019791F46F
:101D100080910C0590910D05019690930D0580938F
:101D20000C0580FFECCFF0CF109214058EE893E005
:101D30000C94140A089585ED8093BC008091B2053F
:101D40009091B305A091B405B091B5050796A11D7A
:101D5000B11D23E0B695A795979587952A95D1F75C
:101D60002091BC0024FD03C01092B005089540915D
:101D7000B2055091B3056091B4057091B505452B3E
:101D8000462B472B69F30097A105B10541F02AE2E4
:101D90002A95F1F700C00197A109B109E1CF80911F
:101DA000B1050C946D031F920F920FB60F92112480
:101DB0000F900FBE0F901F9018951F920F920FB6A5
:101DC0000F9211240BB60F922F933F934F935F9373
:101DD0006F937F938F939F93AF93BF93EF93FF93F3
:101DE0008091B900887F803609F44DC008F040C06A
:101DF000883209F4A9C028F5803109F49DC0C8F4DF
:101E0000882309F4FBC0883009F496C0FF91EF9154
:101E1000BF91AF919F918F917F916F915F914F9102
:101E20003F912F910F900BBE0F900FBE0F901F9000
:101E30001895883109F488C0803241F78093AE0547
:101E400014C0803409F49DC040F48033B9F3883362
:101E5000E9F68093AE0585ECB0C0803509F485C005
:101E6000883509F496C0883489F60E949B0ECECF3F
:101E7000883909F48CC038F5883729F050F4883651
:101E800011F0803719F683E08093B0051092870532
:101E900057C0883809F47BC0803919F0803809F0C0
:101EA000B5CF80918705803208F071C0E091870539
:101EB00081E08E0F809387058091BB00F0E0E959A7
:101EC000FA4F80833DC0803B39F0E0F4803A09F45A
:101ED00079C0883A09F09ACF84E08093B0051092D7
:101EE000640510926305E0916105F0916205199512
:101EF0008091630581110FC081E08093630510928A
:101F0000410509C0803C09F4A6CF883C09F4A3CF61
:101F1000883B09F07BCFE091640581E08E0F8093D0
:101F20006405F0E0EF5BFA4F80818093BB009091F5
:101F300064058091630529C080918B058093BB0067
:101F400085EC8093BC0062CF9091AD058091AC058B
:101F5000981758F5E091AD0581E08E0F8093AD059F
:101F6000F0E0E457FA4F8081E9CFE091AD0581E0E0
:101F70008E0F8093AD058091BB00F0E0E457FA4FDF
:101F800080839091AD058091AC059817C8F285E8E3
:101F9000D8CFE091AD0581E08E0F8093AD058091A3
:101FA000BB00F0E0E457FA4F80838091AF058111C8
:101FB0005CCF81E080938A0584EA8093BC00109214
:101FC000B00524CF85EC8093BC001092B0058091C1
:101FD0008705803230F4E0918705F0E0E959FA4F47
:101FE00010826091870570E0E0916505F0916605CB
:101FF00087E695E019951092870508CF1092AE05F7
:1020000034CF1F920F920FB60F9211242F933F934C
:102010008F939F93AF93BF9380911605909117056F
:10202000A0911805B09119053091150523E0230FF3
:102030002D3758F50196A11DB11D209315058093EC
:10204000160590931705A0931805B0931905809174
:102050001A0590911B05A0911C05B0911D050196D4
:10206000A11DB11D80931A0590931B05A0931C051B
:10207000B0931D05BF91AF919F918F913F912F918B
:102080000F900FBE0F901F90189526E8230F029611
:10209000A11DB11DD2CF1F920F920FB60F92112426
:1020A0000BB60F922F933F934F935F936F937F9352
:1020B0008F939F93AF93BF93EF93FF938091050509
:1020C00090910605A0910705B0910805892B8A2BF0
:1020D0008B2BD1F19091040580910000892780938A
:1020E00000008091050590910605A0910705B0912B
:1020F0000805181619061A061B069CF4809105059A
:1021000090910605A0910705B09108050197A109D6
:10211000B1098093050590930605A0930705B09338
:102120000805FF91EF91BF91AF919F918F917F91A2
:102130006F915F914F913F912F910F900BBE0F9038
:102140000FBE0F901F90189580910802ECEBF1E004
:10215000E4919FEF90930802E230E9F040F4EE231F
:1021600089F0E13091F060E00E942103DACFE430A1
:1021700049F110F1E530B9F7909173009D7F90938C
:102180007300F1CF10926E00EECF90916F009D7FA3
:1021900090936F00E8CF909170009D7F90937000B6
:1021A00091E09093B0009091B100987F94609093EB
:1021B000B1001092B300D7CF909171009D7F9093A2
:1021C0007100D1CF909172009D7F90937200CBCF20
:1021D0001F920F920FB60F9211240BB60F922F93EE
:1021E0003F934F935F936F937F938F939F93AF939F
:1021F000BF93EF93FF9386EE95E00E94D505FF9184
:10220000EF91BF91AF919F918F917F916F915F916E
:102210004F913F912F910F900BBE0F900FBE0F90DB
:102220001F9018951F920F920FB60F9211240BB6A4
:102230000F922F933F934F935F936F937F938F935F
:102240009F93AF93BF93EF93FF9386EE95E00E9429
:102250006105FF91EF91BF91AF919F918F917F9118
:102260006F915F914F913F912F910F900BBE0F9007
:102270000FBE0F901F9018951F920F920FB60F92DE
:1022800011240BB60F922F933F934F935F936F934D
:102290007F938F939F93AF93BF93EF93FF9383E8C5
:1022A00096E00E94D505FF91EF91BF91AF919F916C
:1022B0008F917F916F915F914F913F912F910F90EF
:1022C0000BBE0F900FBE0F901F9018951F920F928C
:1022D0000FB60F9211240BB60F922F933F934F938B
:1022E0005F936F937F938F939F93AF93BF93EF937E
:1022F000FF9383E896E00E946105FF91EF91BF9103
:10230000AF919F918F917F916F915F914F913F918D
:102310002F910F900BBE0F900FBE0F901F9018952E
:102320001F920F920FB60F9211240BB60F922F939C
:102330003F934F935F936F937F938F939F93AF934D
:10234000BF93EF93FF9380E297E00E94D505FF9142
:10235000EF91BF91AF919F918F917F916F915F911D
:102360004F913F912F910F900BBE0F900FBE0F908A
:102370001F9018951F920F920FB60F9211240BB653
:102380000F922F933F934F935F936F937F938F930E
:102390009F93AF93BF93EF93FF9380E297E00E94E8
:1023A0006105FF91EF91BF91AF919F918F917F91C7
:1023B0006F915F914F913F912F910F900BBE0F90B6
:1023C0000FBE0F901F9018951F920F920FB60F928D
:1023D00011240BB60F922F933F934F935F936F93FC
:1023E0007F938F939F93AF93BF93EF93FF938091CE
:1023F000BE070E94F8022091C2073091C3072F5FE9
:102400003F4F3093C3072093C2079091C107953681
:1024100018F096E09093BD079091BD07943009F4B1
:1024200066C0B8F49230F1F0933009F444C0909152
:10243000C007992309F46BC081117CC08091BF074C
:10244000882309F463C08091BF0761E00E942103E3
:102450005EC0953009F457C0963049F791E09093EB
:102460008E084FC08111E3CF2091C2073091C3077E
:102470002436310528F41092C3071092C207D7CF33
:1024800010928E081092C107E091C10791E09E0F53
:102490009093C107F0E02091C2073091C307EE0F7F
:1024A000FF1FE354F84F308727831092C307109221
:1024B000C20793E019C0813009F0B9CFE091C1079C
:1024C00091E09E0F9093C107F0E02091C2073091F8
:1024D000C307EE0FFF1FE354F84F30872783109296
:1024E000C3071092C20794E09093BD07A0CF882342
:1024F00059F22091C2073091C3072536310508F4FF
:1025000096CF95E0F1CF811192CFB5CF2F9AFF9161
:10251000EF91BF91AF919F918F917F916F915F915B
:102520004F913F912F910F900BBE0F900FBE0F90C8
:102530001F9018958091BF07882321F08091BF07D5
:1025400060E084CF2F98E3CF1F920F920FB60F92C7
:1025500011240BB60F922F933F934F935F936F937A
:102560007F938F939F93AF93BF93CF93DF93EF931B
:10257000FF9380910305C091CB08D0E087FF23C073
:102580001092850010928400809103058F5F8093E4
:10259000030580910305082E000C990B8C179D07ED
:1025A00024F4809103058C3074F180918400909123
:1025B000850084349C4908F465C080918400909122
:1025C0008500049661C080910305082E000C990BCC
:1025D0008C179D07CCF63091030525E03203F001FE
:1025E0001124E157F74F808186FFCECF309103054C
:1025F0003203F0011124E157F74F808160E08F73BF
:102600000E942103C1CF8091840090918500309178
:10261000030525E03203F0011124E157F74F418112
:102620005281840F951F9093890080938800309188
:1026300003053203F0011124E157F74F808186FF33
:102640000CC0309103053203F0011124E157F74F1C
:10265000808161E08F730E942103FF91EF91DF91F0
:10266000CF91BF91AF919F918F917F916F915F912A
:102670004F913F912F910F900BBE0F900FBE0F9077
:102680001F90189580E49CE99093890080938800BE
:102690008FEF80930305E1CF1092DD051092DC05EA
:1026A00088EE93E0A0E0B0E08093DE059093DF0534
:1026B000A093E005B093E10527E433E03093DB0518
:1026C0002093DA051092E9051092E8058093EA0557
:1026D0009093EB05A093EC05B093ED0529E533E06D
:1026E0003093E7052093E60545E351E05093F30569
:1026F0004093F20544E351E05093F5054093F4050F
:1027000040E351E05093F7054093F60541E351E073
:102710005093F9054093F80542E351E05093FB05CF
:102720004093FA0546E351E05093FD054093FC05C4
:102730001092FF05109200061092010610920206F8
:1027400010928606109285068093870690938806DD
:10275000A0938906B0938A0630938406209383065B
:1027600045ED50E05093900640938F0644ED50E0C5
:10277000509392064093910640ED50E0509394069A
:102780004093930641ED50E0509396064093950692
:1027900042ED50E0509398064093970646ED50E086
:1027A00050939A064093990610929C0610929D06AB
:1027B00010929E0610929F061092230710922207F5
:1027C0008093240790932507A0932607B0932707AB
:1027D000309321072093200785EC90E090932D07FC
:1027E00080932C0784EC90E090932F0780932E0722
:1027F00080EC90E0909331078093300781EC90E07B
:10280000909333078093320782EC90E090933507E2
:102810008093340786EC90E09093370780933607D7
:102820001092390710923A0710923B0710923C071A
:1028300080913B0390913C03A0913D03B0913E03F6
:102840008093B5099093B609A093B709B093B809DE
:1028500080913F0390914003A0914103B0914203C6
:102860008093B9099093BA09A093BB09B093BC09AE
:1028700084E08093BD0987E08093BE091092BF0970
:1028800084EB8093C00986E18093C10988E180933D
:10289000C20987E18093C30989E18093C409E0916B
:1028A000CB08EC3008F4AAC08FEF8093C509E09103
:1028B000CB08EC3008F4B3C08FEF8093C6098CE0EE
:1028C0008093940984E28093950986E08093960929
:1028D00085E0809397098FE1809398098EE180933A
:1028E000990983E280939A0982E280939B0985E4A7
:1028F00080939C0984E480939D0980E48093A009DF
:102900001092A5091092A6091092A7091092A80981
:102910001092A9091092AA091092AB091092AC0961
:10292000E6EDF8E024E939E08FEF9FEFDC01128259
:10293000138214821582168217821086118683876D
:102940009487A587B6878787908BA18BB28B1286D9
:102950001182108273962E173F0749F78DE090E0A1
:102960000E94451AFC01138212828BE693E0918348
:102970008083118687E2848384E1828784E0838771
:102980001486F093D308E093D2081092D4081092E2
:10299000D50885E28093BE071092C0071092CD083B
:1029A0001092CC081092CF081092CE081092D10845
:1029B0001092D00861E070E090E080E00E946A1B15
:1029C0000097F1F19093CD088093CC081092CF0836
:1029D0001092CE082091D0083091D108232B11F409
:1029E000FC0110821092D1081092D00865E773E0C4
:1029F0008091CC089091CD080C94541C81E08E0FEE
:102A00008093CB08E093C50985E0E89FF00111248D
:102A1000E157F74F88EB9BE09283818348CF81E0B9
:102A20008E0F8093CB08E093C60985E0E89FF00104
:102A30001124E157F74F88EB9BE0928381833FCFCE
:102A40008091CC089091CD08009711F00E94E11A76
:102A50001092CD081092CC081092D1081092D00894
:102A60001092CF081092CE080895789484B58260B1
:102A700084BD84B5816084BD85B5826085BD85B522
:102A8000816085BD80916E00816080936E001092A0
:102A9000810080918100826080938100809181001B
:102AA00081608093810080918000816080938000AC
:102AB0008091B10084608093B1008091B00081600A
:102AC0008093B0008091910082608093910080910A
:102AD000910081608093910080919000816080934B
:102AE00090008091A10082608093A1008091A1005C
:102AF00081608093A1008091A00081608093A000FC
:102B00008091210182608093210180912101816067
:102B10008093210180912001816080932001809128
:102B20007A00846080937A0080917A00826080933A
:102B30007A0080917A00816080937A0080917A0097
:102B4000806880937A001092C1000E94A4010E94C4
:102B5000A40161E0809195090E948E0360E080915C
:102B600095090E94210360E0809194090E948E03E0
:102B70008AED95E090939F0980939E0910923F05FE
:102B800010923E051092B7051092D9050E944F038E
:102B900089E092E090936205809361058AE092E07B
:102BA000909366058093650580E090E1A0E0B0E039
:102BB0008093A1099093A209A093A309B093A409BB
:102BC0008AE090E0A0E0B0E08093A5099093A60988
:102BD000A093A709B093A80980E090E0A0E0B0E43A
:102BE0008093A9099093AA09A093AB09B093AC096B
:102BF00060E070E185E00E94CB046FE979E380E05A
:102C00000E94CB0406E919E0C4E9D9E040E4A42E0F
:102C100042E0B42E56E8852E52E0952E6BECE62E5F
:102C200067E0F62E7BE8C72EDD24D394F80192816D
:102C300081918F01898F9A8F61E00E948E0361E0FC
:102C40008A8D0E948E03F801958183818D8F9E8FDE
:102C500061E00E948E0360E08E8D0E948E0361E031
:102C60008D8D0E9421037FB6F89480910905811112
:102C700025C0F5018491F4019491E82FF0E0EE0F66
:102C8000FF1FE354FE4FA591B4918C91982321F43A
:102C900061E085E30E94210361E085E30E948E03E9
:102CA0008CB580618CBD8CB580648CBD61E084E3A3
:102CB0000E948E0361E083E30E948E0380910905E8
:102CC0008F5F809309057FBEC7010197F1F760E030
:102CD0008D8D0E94210388E80E94B30783E00E9443
:102CE000B30761E08D8D0E942103C7010197F1F7C1
:102CF00060E08D8D0E94210388E90E94B30780E087
:102D00000E94B30780E00E94B30780E00E94B307EF
:102D100080E00E94B30761E08D8D0E942103C6010F
:102D20000197F1F760E08D8D0E94210380EE0E94F3
:102D3000B30761E08D8D0E9421032296F9E0C83926
:102D4000DF0709F073CF09EB19E0C5EBD9E060E0CC
:102D5000F80181918F010E948E03F9E00D3B1F075E
:102D6000B1F705EB19E085E0F82E9CE0D92E22E0C2
:102D7000E22E88898C3008F043C0C88461E08C2D35
:102D80000E948E038889F89EF0011124E157F74FC5
:102D90002C2D2F739081907C922B90831382148220
:102DA0006D2D0E94EF188D9DA001112430E020E0D0
:102DB000BA01620F731FF69EF001F79EF00D112409
:102DC000E157F74F908196FD12C02F5F3F4F2C3097
:102DD000310571F781110BC010928000E0928100E3
:102DE0001092850010928400E6BAE0926F00E889A4
:102DF000FE9EF0011124E157F74F808180648083AB
:102E00009E858C85F801828B938B60E00E948E03F7
:102E100061E0F80183890E948E0360E0F8018389F4
:102E20000E94210321960E5F1F4FF9E0093B1F0707
:102E300009F09FCFF8941092200189E0809321013E
:102E400080E293E09093290180932801109225015C
:102E50001092240182E08093730078948093BD07E0
:102E60001092C1078091BE0760E00E948E0360E06F
:102E700080E30E948E0360E081E30E948E0364E69B
:102E800070E080E090E00E94020581E090E0909385
:102E900013058093120510921105109210051092DF
:102EA0000F0510920E0510920D0510920C05109250
:102EB0000B0510920A05109214050E94870860E025
:102EC00087E30E948E03C3E0D0E061E08091950922
:102ED0000E94210364E670E080E090E00E94020519
:102EE00060E0809195090E94210364E670E080E033
:102EF00090E00E940205219741F760E971E080E0CF
:102F000090E00E940205C1E08091140581112FC05C
:102F10000E94CC01853F914054F18FB7F894C09046
:102F20001605D0901705E0901805F09019058FBF91
:102F30002FB7F8948091160590911705A091180568
:102F4000B09119052FBF8C199D09AE09BF09C29711
:102F5000A105B105A0F40E94CC01853F91403CF051
:102F600062E070E080E090E00E940205E1CF809195
:102F7000140581110E94510E0E946706C5CFC093AF
:102F80001405F8CF8091CC089091CD08009711F0EE
:102F90000C94E11A08950E940D1808F481E0089538
:102FA000E89409C097FB3EF49095809570956195E3
:102FB0007F4F8F4F9F4F9923A9F0F92F96E9BB2799
:102FC0009395F695879577956795B795F111F8CF15
:102FD000FAF4BB0F11F460FF1BC06F5F7F4F8F4F80
:102FE0009F4F16C0882311F096E911C0772321F076
:102FF0009EE8872F762F05C0662371F096E8862F0E
:1030000070E060E02AF09A95660F771F881FDAF764
:10301000880F9695879597F90895990F0008550F91
:10302000AA0BE0E8FEEF16161706E807F907C0F04E
:1030300012161306E407F50798F0621B730B840B56
:10304000950B39F40A2661F0232B242B252B21F430
:1030500008950A2609F4A140A6958FEF811D811DD0
:1030600008950E9444180C94B5180E94A71838F0CF
:103070000E94AE1820F0952311F00C949E180C9429
:10308000A41811240C94E9180E94C61870F3959F97
:10309000C1F3950F50E0551F629FF001729FBB274F
:1030A000F00DB11D639FAA27F00DB11DAA1F649FEB
:1030B0006627B00DA11D661F829F2227B00DA11D9E
:1030C000621F739FB00DA11D621F839FA00D611D24
:1030D000221F749F3327A00D611D231F849F600D45
:1030E000211D822F762F6A2F11249F5750409AF06E
:1030F000F1F088234AF0EE0FFF1FBB1F661F771FFA
:10310000881F91505040A9F79E3F510580F00C94C4
:103110009E180C94E9185F3FE4F3983ED4F386952B
:1031200077956795B795F795E7959F5FC1F7FE2B64
:10313000880F911D9695879597F9089597F99F6740
:1031400080E870E060E008959FEF80EC089500242F
:103150000A941616170618060906089500240A94FC
:1031600012161306140605060895092E0394000C82
:1031700011F4882352F0BB0F40F4BF2B11F460FF11
:1031800004C06F5F7F4F8F4F9F4F089557FD90583A
:10319000440F551F59F05F3F71F04795880F97FB1B
:1031A000991F61F09F3F79F08795089512161306D5
:1031B0001406551FF2CF4695F1DF08C01616170604
:1031C0001806991FF1CF8695710561050894089539
:1031D000E894BB2766277727CB0197F90895991BB9
:1031E00079E004C0991F961708F0961B881F7A95FE
:1031F000C9F78095089597FB072E16F4009407D021
:1032000077FD09D00E94171907FC05D03EF4909570
:1032100081959F4F0895709561957F4F0895EE0FAA
:10322000FF1F881F8BBF0790F691E02D1994AA1BF2
:10323000BB1B51E107C0AA1FBB1FA617B70710F0A1
:10324000A61BB70B881F991F5A95A9F780959095D3
:10325000BC01CD0108955058BB27AA270E944319ED
:103260000C94B5180E94A71838F00E94AE1820F0F0
:1032700039F49F3F19F426F40C94A4180EF4E09549
:10328000E7FB0C949E18E92F0E94C61858F3BA1752
:10329000620773078407950720F079F4A6F50C946C
:1032A000E8180EF4E0950B2EBA2FA02D0B01B901F2
:1032B00090010C01CA01A0011124FF27591B99F0AC
:1032C000593F50F4503E68F11A16F040A22F232FB8
:1032D000342F4427585FF3CF469537952795A79508
:1032E000F0405395C9F77EF41F16BA0B620B730BAF
:1032F000840BBAF09150A1F0FF0FBB1F661F771F20
:10330000881FC2F70EC0BA0F621F731F841F48F4D4
:10331000879577956795B795F7959E3F08F0B0CF5D
:103320009395880F08F09927EE0F97958795089544
:103330000E94AC190C94B5180E94AE1858F00E9467
:10334000A71840F029F45F3F29F00C949E18511102
:103350000C94E9180C94A4180E94C61868F39923D9
:10336000B1F3552391F3951B550BBB27AA27621781
:103370007307840738F09F5F5F4F220F331F441F8E
:10338000AA1FA9F335D00E2E3AF0E0E832D09150C2
:103390005040E695001CCAF72BD0FE2F29D0660FAF
:1033A000771F881FBB1F261737074807AB07B0E8F2
:1033B00009F0BB0B802DBF01FF2793585F4F3AF0F8
:1033C0009E3F510578F00C949E180C94E9185F3FCD
:1033D000E4F3983ED4F3869577956795B795F7957E
:1033E0009F5FC9F7880F911D9695879597F9089566
:1033F000E1E0660F771F881FBB1F62177307840702
:10340000BA0720F0621B730B840BBA0BEE1F88F710
:10341000E09508950E94111A6894B1110C94E9186E
:1034200008950E94CE1888F09F5798F0B92F9927D9
:10343000B751B0F0E1F0660F771F881F991F1AF09F
:10344000BA95C9F714C0B13091F00E94E818B1E004
:1034500008950C94E818672F782F8827B85F39F003
:10346000B93FCCF3869577956795B395D9F73EF438
:1034700090958095709561957F4F8F4F9F4F0895E0
:103480000E940D1808F48FEF08950F931F93CF93A8
:10349000DF938230910510F482E090E0E091CD0955
:1034A000F091CE0930E020E0B0E0A0E0309799F450
:1034B0002115310509F44AC0281B390B2430310588
:1034C000D8F58A819B816115710589F1FB01938390
:1034D0008283FE0111C0408151810281138148170E
:1034E0005907E0F04817590799F4109761F01296C0
:1034F0000C93129713961C933296CF01DF91CF91C4
:103500001F910F9108950093CD091093CE09F4CF28
:103510002115310551F04217530738F0A901DB019D
:103520009A01BD01DF01F801C1CFEF01F9CF9093FE
:10353000CE098093CD09CDCFFE01E20FF31F819319
:1035400091932250310939832883D7CF2091CB0919
:103550003091CC09232B41F420910B0230910C02C5
:103560003093CC092093CB092091090230910A02B3
:103570002115310541F42DB73EB740910D02509110
:103580000E02241B350BE091CB09F091CC09E21718
:10359000F307A0F42E1B3F0B2817390778F0AC0176
:1035A0004E5F5F4F2417350748F04E0F5F1F509353
:1035B000CC094093CB09819391939FCFF0E0E0E059
:1035C0009CCFCF93DF930097E9F0FC0132971382F1
:1035D0001282A091CD09B091CE09ED0130E020E03A
:1035E0001097A1F420813181820F931F2091CB0984
:1035F0003091CC092817390709F061C0F093CC0944
:10360000E093CB09DF91CF910895EA01CE17DF0750
:10361000E8F54A815B819E0141155105B1F7E90149
:10362000FB83EA8349915991C40FD51FEC17FD071D
:1036300061F4808191810296840F951FE90199833D
:103640008883828193819B838A83F0E0E0E01296F5
:103650008D919C9113970097B9F52D913C911197FD
:10366000CD010296820F931F2091CB093091CC0996
:103670002817390739F6309751F51092CE09109274
:10368000CD09B093CC09A093CB09BCCFD383C2831F
:1036900040815181840F951FC817D90761F44E5F8F
:1036A0005F4F88819981480F591F518340838A81D8
:1036B0009B81938382832115310509F0B0CFF0936C
:1036C000CE09E093CD099ECFFD01DC01C0CF13826E
:1036D0001282D7CF4F925F926F927F928F929F927A
:1036E000AF92BF92CF92DF92EF92FF920F931F9310
:1036F000CF93DF938C01009799F4CB01DF91CF91A9
:103700001F910F91FF90EF90DF90CF90BF90AF90FF
:103710009F908F907F906F905F904F900C94451A80
:10372000FC01E60FF71F9C0122503109E217F30755
:1037300008F4AEC0D901CD91DC911197C617D70717
:1037400020F1C530D10578F0CE0104978617970790
:1037500050F0C61BD70B2297C193D1936D937C93E6
:10376000CF010E94E11AC801DF91CF911F910F9103
:10377000FF90EF90DF90CF90BF90AF909F908F9091
:103780007F906F905F904F9008955B01AC1ABD0AD7
:103790004C018C0E9D1EA091CD09B091CE09512CEB
:1037A000412CF12CE12C109731F58091CB099091AF
:1037B000CC098815990509F05CC04616570608F033
:1037C00058C08091090290910A02009741F48DB788
:1037D0009EB740910D0250910E02841B950BE81785
:1037E000F90708F055C0F093CC09E093CB09F90133
:1037F00071836083B8CF8D919C91119712966C90D4
:10380000129713967C901397A815B90559F56C017A
:1038100042E0C40ED11CCA14DB0420F1AC014A19E9
:103820005B09DA011296159780F0628273825183E8
:103830004083D9016D937C93E114F10471F0D701B9
:103840001396FC93EE9312978ECF22968C0F9D1FAA
:10385000F90191838083F301EFCFF093CE09E093D8
:10386000CD0981CF4816590608F42C017D01D301FA
:103870009ACFCB010E94451A7C01009749F0AE0116
:10388000B8010E944B1CC8010E94E11A87016BCF4E
:1038900010E000E068CFFB01DC0102C001900D9256
:1038A00041505040D8F70895FB01DC0101900D9282
:1038B0000020E1F7089511E0C0E7D1E000E006C084
:1038C000802FFE010E940F192196011DC137D107DB
:0A38D00080E00807A9F7F894FFCF85
:1038DA000000704200007042FF0000CF0980000023
:1038EA0000010001000000000000000100000001CA
:1038FA0000000000000100000000000000000001BC
:10390A0000000001000000000001000000000000AB
:10391A00000000010000000100000000000100009A
:10392A00000000000000000100000001000000008B
:10393A000001000000000000000100010000000179
:10394A00000000000000000100000001000000016A
:10395A00000000010000000000000000000000005C
:10396A00000000010000000100000000000000004B
:10397A00000000000000000100000001000000003B
:10398A00000000000000000000000001000000012B
:10399A00000000000000000000000000000100011B
:1039AA00000000010000000000000001000100000A
:1039BA0000000001000000010000000000000000FB
:1039CA0000010000000000010000000100000000EA
:1039DA0000000000000100000000000100000001DA
:1039EA0000000000000000000001000000000001CB
:1039FA0000000001000000000000000000010000BB
:103A0A000001000100000001000000363738391BB0
:103A1A001D1A1C0000000062023502CE070B022E9E
:103A2A00021B020C0200000000F70534057A054467
:103A3A0006AB0589059D0500000000F2083405CE95
:103A4A0007CD070D0A0073746F700032003300341B
:103A5A000035003600370039003800313000313186
:023A6A0000005A
:00000001FF
