:100000000C9471010C94A2010C94A2010C94A20115
:100010000C94A2010C94A2010C94A2010C94A201D4
:100020000C94A2010C9483090C9483090C94830909
:100030000C94A2010C94FB0A0C94A2010C94A20152
:100040000C94A2010C94750D0C94A2010C94A201C5
:100050000C94A2010C94A2010C94A2010C94B10A7C
:100060000C94A2010C946A0C0C94400C0C94A20108
:100070000C94A2010C94A2010C94A2010C94A20174
:100080000C94A2010C94A2010C94A2010C94A20164
:100090000C94A2010C94A2010C94A2010C948D0961
:1000A0000C94A2010C94A2010C94A2010C94A20144
:1000B0000C94A2010C94A2010C94A2010C94940C37
:1000C0000C94A2010C94A2010C94A2010C94160CA5
:1000D0000C94EC0B0C94A2010C94C20B0C94980B96
:1000E0000C94A2010C94E0060C948C020C948602F1
:1000F0000C94DD050C94CD010C9415070C94E806C6
:100100000C94CD040C94AC020C947F020C94CE069B
:100110000C9483020C94B1020C941D0E0C940607EF
:100120000C94F2060C94CC010C94A4060C94BA0620
:100130000C94CE010C9490020C94A4020C943605FD
:100140000C947B020C94B2020C941F070C949A023C
:100150000C9413050C94CB010C94DD010C947102EA
:100160000C94F8070C9490050C943D070C949E0297
:100170000C94E9120C9422050C9433070C94B506E8
:100180000C94A8020C94B5080C94B6020C942402AA
:100190000C9447070C9429070C94F0010C94FC066E
:1001A0000C9444050C94F7010C94F7070C949602F8
:1001B0000C94C4060C9477020C94D806000020001E
:1001C0002300260029002C002F003200000100002F
:1001D0000301060109010200002100240027002A72
:1001E000002D003000330001010000040107010A66
:1001F0000100002200250028002B002E00310034D1
:100200000002010000050108010B010505050507B5
:100210000508080808020202020A0A080804040481
:1002200004010101010101010103030303030303AD
:1002300003040707070C0C0C0C0C0C0C0C0202023C
:100240000206060606060606060B0B0B0B0B0B0B2F
:100250000B010210202008081020401020408002CE
:1002600001020108040201010204081020408080FC
:100270004020100804020180040201804020100880
:100280000402010804020101020408102040800158
:100290000204081020408000000A0B02090C0D0E19
:1002A0000807030401000000000000000000000037
:1002B000000000000000000000000000000000003E
:1002C00000000012111000000000000000000000FB
:1002D00000000000000000000000000000001D0EF3
:1002E000E91211241FBECFEFD1E2DEBFCDBF00E087
:1002F0000CBF12E0A0E0B2E0E2E1FFE200E00BBFE1
:1003000002C007900D92AA37B107D9F727E0AAE7F4
:10031000B2E001C01D92A036B207E1F711E0C0E7DC
:10032000D1E000E006C021970109802FFE010E9464
:100330003F14CF36D10780E00807A9F70E940610C6
:100340000C9477170C9400002091F402260F3327A9
:10035000331F21323105ECF420914103FC0190E080
:1003600080E0243069F082E00895A091F4022191A8
:10037000AC014E525D4FA40FB52FB11D2C930196C9
:10038000861798F38091F402680F6093F40280E07E
:10039000089581E00895089508950895E091D002A8
:1003A0008091CF02E81730F4F0E0E155FD4F8081F5
:1003B00090E008958FEF9FEF08959091D002809183
:1003C000CF022FEF3FEF981748F4E92FF0E0E15507
:1003D000FD4F208130E09F5F9093D002C9010895C6
:1003E0008091CF029091D002891B990B0895CF92F2
:1003F000DF92EF92FF920F931F93CF93DF937C01D5
:10040000CB018A0120914703222389F0EB016B0184
:10041000C40ED51ECC15DD0569F06991D701ED91AB
:10042000FC910190F081E02DC7011995F3CF642F65
:100430000E94A401C801DF91CF911F910F91FF90FD
:10044000EF90DF90CF900895CF93DF931F92CDB7B9
:10045000DEB76983209147032223F9F020916A03D4
:10046000203258F021E030E0FC013383228390E019
:1004700080E00F90DF91CF91089580914803E82F9D
:10048000F0E0E75BFC4F998190838F5F8093480396
:1004900080936A0381E090E0ECCF61E0CE010196A9
:1004A0000E94A401F7CF8150823108F05AC0E82F92
:1004B000F0E08827E15AFD4F8F4F0C943F147F02E4
:1004C0008302710277027B02B10286028C029002E3
:1004D00096029A029E02A402A802B102AC02B202E3
:1004E000B602809180008F7780938000089580917C
:1004F00080008F7DF9CF80918000877FF5CF84B514
:100500008F7784BD089584B58F7DFBCF8091B00037
:100510008F778093B00008958091B0008F7DF9CFE0
:10052000809190008F778093900008958091900043
:100530008F7DF9CF80919000877FF5CF8091A000CB
:100540008F778093A00008958091A0008F7DF9CFD0
:100550008091A000877FF5CF809120018F778093D5
:1005600020010895809120018F7DF9CF8091200195
:10057000877FF5CF1F93CF93DF93282F30E0F901CA
:10058000E956FD4F8491F901EF5AFD4FD491F901DD
:10059000E55FFD4FC491CC23A9F0162F81110E9475
:1005A0005302EC2FF0E0EE0FFF1FEF50FE4FA5912E
:1005B000B4918FB7F894EC91111108C0D095DE2357
:1005C000DC938FBFDF91CF911F910895DE2BF8CF81
:1005D0001092410381E08093400310921B0361E07D
:1005E00084E10E94BA0261E085E10E94BA02E9EB6F
:1005F000F0E080818E7F808380818D7F808388E49E
:100600008093B80085E48093BC000895CF93DF9376
:1006100091E09093D1028823B9F0C091B800D091B5
:10062000BA008091BC008A7B8093BC0060E084E1CA
:100630000E94BA0260E085E10E94BA020E94E802CC
:10064000D093BA00C093B800DF91CF910895CF93B3
:10065000DF9390E0FC01EF5AFD4F2491855F9D4FA1
:10066000FC0184918823D1F090E0880F991FFC0150
:10067000E952FE4FA591B491FC01EF50FE4FC59198
:10068000D49161110EC09FB7F8948C91E22FE09540
:100690008E238C932881E223E8839FBFDF91CF9143
:1006A00008958FB7F894EC91E22BEC938FBFF6CFBF
:1006B0003FB7F8948091AB029091AC02A091AD024B
:1006C000B091AE0226B5A89B05C02F3F19F0019648
:1006D000A11DB11D3FBFBA2FA92F982F8827BC019C
:1006E000CD01620F711D811D911D42E0660F771FC4
:1006F000881F991F4A95D1F70895CF92DF92EF9204
:10070000FF920F931F93CF93DF93D0916A0381E001
:10071000D13208F09CC0C09169030E9458036B015C
:100720007C018091410381116CC082E08093410380
:1007300081E0809340038FEF80933F0310923E034C
:10074000D0933D03A9E4B3E0EDE1F3E080E0D813FA
:100750008DC010921C0380911C03CC0FC82BC0933A
:100760001C0380911B03813009F084C010921B038D
:100770000E9458036B017C0180911C038093BB0095
:100780008091430390914403A0914503B0914603A7
:10079000892B8A2B8B2BA1F00E94580300914303D5
:1007A0001091440320914503309146036C197D0953
:1007B0008E099F09061717072807390708F442C052
:1007C0008091BC0083FDD8CF85EC8093BC000E9453
:1007D00058036B017C0180914103823009F44CC0C5
:1007E00080913F038F3F09F469C080913F038032BD
:1007F00009F466C080913F03803309F463C084E04C
:1008000026C08091430390914403A0914503B09189
:100810004603892B8A2B8B2B09F483CF0E94580324
:100820000091430310914403209145033091460306
:100830006C197D098E099F090617170728073907C4
:1008400008F06FCF809142030E94060385E010926A
:10085000480310926A0310924703DF91CF911F91D2
:100860000F91FF90EF90DF90CF9008959D9191931D
:100870008F5F6DCF85EEA9CF8091430390914403A4
:10088000A0914503B0914603892B8A2B8B2B09F449
:10089000A2CF0E945803009143031091440320917A
:1008A0004503309146036C197D098E099F0906178F
:1008B00017072807390708F08ECFC4CF80E0C7CFCD
:1008C00082E0C5CF83E0C3CF0F931F93CF93DF9315
:1008D000162F072FC5E2D7E0AA85BB859C8521E0AE
:1008E00020934703909369031092480310926A0380
:1008F000ED91FC9111970190F081E02D682FCD01D1
:1009000019958A859B85DC01ED91FC910190F08120
:10091000E02D602F19958A859B85DC01ED91FC9176
:100920000190F081E02D612F1995DF91CF911F91FA
:100930000F910C947D038F929F92AF92BF92CF92B2
:10094000DF92EF92FF924B015C010E9458036B0112
:100950007C010E9458036C197D098E099F09683E2D
:10096000734081059105A8F321E0821A9108A1083E
:10097000B10888EEC80E83E0D81EE11CF11C81147A
:100980009104A104B10429F7FF90EF90DF90CF907C
:10099000BF90AF909F908F900895AF92BF92CF92EB
:1009A000DF92EF92FF920F931F93CF93DF936C012F
:1009B0007B018B01040F151FEB015E01AE18BF0810
:1009C000C017D10759F06991D601ED91FC910190C2
:1009D000F081E02DC6011995892B79F7C501DF91CA
:1009E000CF911F910F91FF90EF90DF90CF90BF902C
:1009F000AF900895FC01A089B1898C91A689B7892F
:100A000082FD0FC09C91818D8F5F8F73228D821725
:100A100049F0A18DAE0FBF2FB11D5D969C93818FC4
:100A200008958C910895FC01538D448D252F30E05D
:100A3000842F90E0821B930B541710F0CF960895EB
:100A400001970895FC01918D828D981761F0A28D18
:100A5000AE0FBF2FB11D5D968C91928D9F5F9F73DE
:100A6000928F90E008958FEF9FEF0895FC01918D94
:100A7000828D981731F0828DE80FF11D858D90E001
:100A800008958FEF9FEF0895FC01918D228D892F9E
:100A900090E0805C9F4F821B91098F739927089586
:100AA00087E793E00E94440521E0892B09F420E0C8
:100AB000822F089584E194E00E94440521E0892B6F
:100AC00009F420E0822F089581EB94E00E94440510
:100AD00021E0892B09F420E0822F0895FC01A48DE8
:100AE000A80FB92FB11DA35ABF4F2C91848D90E050
:100AF00001968F739927848FA689B7892C93A08933
:100B0000B1898C91837080648C93938D848D9813BC
:100B100006C00288F389E02D80818F7D808308954F
:100B2000EF92FF920F931F93CF93DF93EC0181E03D
:100B3000888F9B8D8C8D98131AC0E889F9898081E4
:100B400085FF15C09FB7F894EE89FF896083E88917
:100B5000F98980818370806480839FBF81E090E009
:100B6000DF91CF911F910F91FF90EF900895F62E96
:100B70000B8D10E00F5F1F4F0F731127E02E8C8D30
:100B80008E110CC00FB607FCFACFE889F989808175
:100B900085FFF5CFCE010E946E05F1CFEB8DEC0FF6
:100BA000FD2FF11DE35AFF4FF0829FB7F8940B8F92
:100BB000EA89FB8980818062CFCFCF93DF93EC01FC
:100BC000888D8823B9F0AA89BB89E889F9898C9135
:100BD00085FD03C0808186FD0DC00FB607FCF7CFF1
:100BE0008C9185FFF2CF808185FFEDCFCE010E94F1
:100BF0006E05E9CFDF91CF910895F0E0E0E0199420
:100C000080E090E0892B29F00E94640581110E9408
:100C1000000080E090E0892B49F080E090E0892B93
:100C200029F00E94000081110E9400000E945A05D4
:100C300081110E94FD0580E090E0892B29F00E943F
:100C4000500581110C94000008958F929F92AF92ED
:100C5000BF92CF92DF92EF92FF920F931F93CF93A9
:100C6000DF93EC016A017B0120E030E04FE753E4C1
:100C7000CB01B6010E9453134B015C0120E030E030
:100C8000A9010E945C1518168CF5C501B4010E94DB
:100C900026158B01B98020E030E0A901C701B6011B
:100CA0000E945C1560E018160CF061E08B2D0E942C
:100CB000BA020F3F110509F0ECF41127C88161E079
:100CC0008C2F0E94270301151105B9F460E08C2FC9
:100CD000DF91CF911F910F91FF90EF90DF90CF9018
:100CE000BF90AF909F908F900C94BA02C501B40151
:100CF0009058CDCF0FEF10E0E1CF0F3F110511F469
:100D000061E0E5CFEC2FF0E0E956FD4FE491E150D2
:100D1000E23108F0BCC0F0E08827EE56F94F8F4F63
:100D20000C943F14A406B506BA06C406CE064707BF
:100D3000D806E006E806F206FC06060715071F07B8
:100D40004707290733073D0784B5806884BD07BD81
:100D5000DF91CF911F910F91FF90EF90DF90CF9097
:100D6000BF90AF909F908F90089584B5806284BDAE
:100D700008BDEECF80918000806880938000109342
:100D8000890000938800E4CF809180008062809386
:100D9000800010938B0000938A00DACF809180004E
:100DA00088608093800010938D0000938C00D0CFDA
:100DB0008091B00080688093B0000093B300C8CFEA
:100DC0008091B00080628093B0000093B400C0CFE7
:100DD0008091900080688093900010939900009318
:100DE0009800B6CF8091900080628093900010931D
:100DF0009B0000939A00ACCF809190008860809314
:100E0000900010939D0000939C00A2CF8091A000C1
:100E100080688093A0008091A0008F7B8093A000C9
:100E20001093A9000093A80093CF8091A000806246
:100E30008093A0001093AB000093AA0089CF80910B
:100E4000A00088608093A0001093AD000093AC00D8
:100E50007FCF809120018068809320011093290129
:100E60000093280175CF809120018062809320013A
:100E700010932B0100932A016BCF80912001886091
:100E80008093200110932D0100932C0161CF003835
:100E900011050CF035CF1ACF8EBD00000DB407FE42
:100EA000FDCF8EB50895CF93DF93EC0160E088818C
:100EB0000E94BA0288E90E944C0780E00E944C0719
:100EC00080E00E944C0780E00E944C0780E00E9476
:100ED0004C0761E088810E94BA028BE891E001979B
:100EE000F1F760E088810E94BA0280EE0E944C0710
:100EF00061E08881DF91CF910C94BA02AF92BF92EA
:100F0000CF92DF92EF92FF920F931F93CF93DF93D5
:100F1000CDB7DEB760970FB6F894DEBF0FBECDBF7A
:100F20006C0160E0FC0180810E94BA0280E60E94B0
:100F30004C079E012F5F3F4F79015E0131E1A30E07
:100F4000B11C870180E00E944C0790E0B0E0A0E077
:100F5000F80181939193A193B1938F01EA15FB0559
:100F600089F761E0F60180810E94BA0280E090E09A
:100F7000DC01F70141915191619171917F01BA2F8B
:100F8000A92F982F8827840F951FA61FB71FE0173A
:100F9000F10779F79C01AD0166277727CB01621B2A
:100FA000730B840B950B60960FB6F894DEBF0FBEE3
:100FB000CDBFDF91CF911F910F91FF90EF90DF9008
:100FC000CF90BF90AF900895FC01248131E0309321
:100FD0004703209369031092480310926A038485A3
:100FE000682B8BE693E00E9424020C947D03089505
:100FF00090E080E008954F925F926F927F928F927F
:101000009F92AF92BF92CF92DF92EF92FF92CF93D7
:10101000DF9300D000D000D01F92CDB7DEB7498358
:101020005A836B837C833A872987BC01990F880B8D
:10103000990B0E94F4129B01AC0160E070E08AE71A
:1010400094E40E9447146B017C012DEC3CEC4CE4D1
:101050005DE30E94531320919302309194024091DA
:101060009502509196020E9448144B015C018092B7
:10107000930290929402A0929502B0929602E98512
:10108000FA852081318142815381C701B6010E94D6
:1010900047142DEC3CEC4CE45DE30E94B4142AE0D0
:1010A00037ED43EA5BE30E9453136D837E838F83A6
:1010B00098872DEC3CEC4CEC5EE3C701B6010E9436
:1010C00053132B013C012AE037ED43EA5CE3C501F1
:1010D000B4010E9453139B01AC01C301B2010E94F1
:1010E00048149B01AC016D817E818F8198850E949F
:1010F0004814E985FA85C082D182E282F38227E131
:1011000037EB41ED58E30E94531329813A814B811B
:101110005C810E9448142A960FB6F894DEBF0FBE79
:10112000CDBFDF91CF91FF90EF90DF90CF90BF9038
:10113000AF909F908F907F906F905F904F900895A9
:101140000F931F93CF938C01C62F64600E94E40716
:101150006C2F6B7FC8010E94E40783EC90E001973D
:10116000F1F7CF911F910F9108950F931F93CF9394
:10117000DF938C01C62FD62FD07FD1606D2F0E94B8
:10118000E4076D2FC8010E94A00880E1C89FE0011C
:101190001124C1606C2FC8010E94E4076C2FC801A4
:1011A0000E94A00881E090E0DF91CF911F910F9104
:1011B0000895FC0101900020E9F73197AF01481B29
:1011C000590BBC0181EB94E00C94CD048F929F925B
:1011D000AF92BF920F931F93CF93DF93CDB7DEB73C
:1011E000A1970FB6F894DEBF0FBECDBF19A2423053
:1011F00008F44AE08E010F5D1F4F842E912CB12C14
:10120000A12CA50194010E941114E62FB901CA0175
:10121000EA30F4F4E05DD801EE938D01232B242B0A
:10122000252B79F790E080E0109719F0CD010E940E
:10123000D908A1960FB6F894DEBF0FBECDBFDF91DF
:10124000CF911F910F91BF90AF909F908F90089575
:10125000E95CE1CFCF92DF92EF92FF92CF93DF93E1
:101260006B017C016DE281EB94E00E949005EC0142
:1012700066277727CB016C197D098E099F094AE003
:101280000E94E6088C0F9D1FDF91CF91FF90EF9099
:10129000DF90CF90089585ED8093BC00809143034B
:1012A00090914403A0914503B09146030796A11D78
:1012B000B11D23E0B695A795979587952A95D1F707
:1012C0002091BC0024FD03C0109241030895409179
:1012D0004303509144036091450370914603452BAD
:1012E000462B472B69F30097A105B10541F02AE28F
:1012F0002A95F1F700C00197A109B109E1CF8091CA
:1013000042030C9406031F920F920FB60F92112402
:101310000F900FBE0F901F9018951F920F920FB64F
:101320000F9211240BB60F922F933F934F935F931D
:101330006F937F938F939F93AF93BF93EF93FF939D
:101340008091B900887F803609F44DC008F040C014
:10135000883209F4A9C028F5803109F49DC0C8F489
:10136000882309F4FBC0883009F496C0FF91EF91FF
:10137000BF91AF919F918F917F916F915F914F91AD
:101380003F912F910F900BBE0F900FBE0F901F90AB
:101390001895883109F488C0803241F780933F0363
:1013A00014C0803409F49DC040F48033B9F388330D
:1013B000E9F680933F0385ECB0C0803509F485C021
:1013C000883509F496C0883489F60E944B09CECF3F
:1013D000883909F48CC038F5883729F050F48836FC
:1013E00011F0803719F683E08093410310921803BF
:1013F00057C0883809F47BC0803919F0803809F06B
:10140000B5CF80911803803208F071C0E0911803C5
:1014100081E08E0F809318038091BB00F0E0E850CC
:10142000FD4F80833DC0803B39F0E0F4803A09F401
:1014300079C0883A09F09ACF84E0809341031092F2
:10144000F5021092F402E091F202F091F302199584
:101450008091F40281110FC081E08093F402109218
:10146000D20209C0803C09F4A6CF883C09F4A3CF7E
:10147000883B09F07BCFE091F50281E08E0F8093ED
:10148000F502F0E0EE52FD4F80818093BB00909119
:10149000F5028091F40229C080911C038093BB0067
:1014A00085EC8093BC0062CF90913E0380913D0318
:1014B000981758F5E0913E0381E08E0F80933E032C
:1014C000F0E0E35EFC4F8081E9CFE0913E0381E0F4
:1014D0008E0F80933E038091BB00F0E0E35EFC4FF3
:1014E000808390913E0380913D039817C8F285E870
:1014F000D8CFE0913E0381E08E0F80933E03809130
:10150000BB00F0E0E35EFC4F8083809140038111DB
:101510005CCF81E080931B0384EA8093BC0010922F
:10152000410324CF85EC8093BC001092410380914D
:101530001803803230F4E0911803F0E0E850FD4FDA
:1015400010826091180370E0E091F602F091F702CA
:1015500088EF92E019951092180308CF10923F037C
:1015600034CF1F920F920FB60F9211242F933F93F7
:101570008F939F93AF93BF938091A7029091A802FE
:10158000A091A902B091AA023091A60223E0230FF4
:101590002D3758F50196A11DB11D2093A602809309
:1015A000A7029093A802A093A902B093AA028091E7
:1015B000AB029091AC02A091AD02B091AE02019647
:1015C000A11DB11D8093AB029093AC02A093AD021C
:1015D000B093AE02BF91AF919F918F913F912F91A8
:1015E0000F900FBE0F901F90189526E8230F0296BC
:1015F000A11DB11DD2CF1F920F920FB60F921124D1
:101600000BB60F922F933F934F935F936F937F93FC
:101610008F939F93AF93BF93EF93FF938091990222
:1016200090919A02A0919B02B0919C02892B8A2BE7
:101630008B2BD1F1909198028091000089278093A3
:1016400000008091990290919A02A0919B02B09122
:101650009C02181619061A061B069CF48091990222
:1016600090919A02A0919B02B0919C020197A109CE
:10167000B1098093990290939A02A0939B02B09330
:101680009C02FF91EF91BF91AF919F918F917F91BC
:101690006F915F914F913F912F910F900BBE0F90E3
:1016A0000FBE0F901F90189580910002E6EDF1E0BB
:1016B000E4919FEF90930002E230E9F040F4EE23D2
:1016C00089F0E13091F060E00E94BA02DACFE430B4
:1016D00049F110F1E530B9F7909173009D7F909337
:1016E0007300F1CF10926E00EECF90916F009D7F4E
:1016F00090936F00E8CF909170009D7F9093700061
:1017000091E09093B0009091B100987F9460909395
:10171000B1001092B300D7CF909171009D7F90934C
:101720007100D1CF909172009D7F90937200CBCFCA
:101730001F920F920FB60F9211240BB60F922F9398
:101740003F934F935F936F937F938F939F93AF9349
:10175000BF93EF93FF9387E793E00E946E05FF919D
:10176000EF91BF91AF919F918F917F916F915F9119
:101770004F913F912F910F900BBE0F900FBE0F9086
:101780001F9018951F920F920FB60F9211240BB64F
:101790000F922F933F934F935F936F937F938F930A
:1017A0009F93AF93BF93EF93FF9387E793E00E94DC
:1017B000FA04FF91EF91BF91AF919F918F917F912B
:1017C0006F915F914F913F912F910F900BBE0F90B2
:1017D0000FBE0F901F9018951F920F920FB60F9289
:1017E00011240BB60F922F933F934F935F936F93F8
:1017F0007F938F939F93AF93BF93EF93FF9384E176
:1018000094E00E946E05FF91EF91BF91AF919F917F
:101810008F917F916F915F914F913F912F910F9099
:101820000BBE0F900FBE0F901F9018951F920F9236
:101830000FB60F9211240BB60F922F933F934F9335
:101840005F936F937F938F939F93AF93BF93EF9328
:10185000FF9384E194E00E94FA04FF91EF91BF911D
:10186000AF919F918F917F916F915F914F913F9138
:101870002F910F900BBE0F900FBE0F901F901895D9
:101880001F920F920FB60F9211240BB60F922F9347
:101890003F934F935F936F937F938F939F93AF93F8
:1018A000BF93EF93FF9381EB94E00E946E05FF914D
:1018B000EF91BF91AF919F918F917F916F915F91C8
:1018C0004F913F912F910F900BBE0F900FBE0F9035
:1018D0001F9018951F920F920FB60F9211240BB6FE
:1018E0000F922F933F934F935F936F937F938F93B9
:1018F0009F93AF93BF93EF93FF9381EB94E00E948C
:10190000FA04FF91EF91BF91AF919F918F917F91D9
:101910006F915F914F913F912F910F900BBE0F9060
:101920000FBE0F901F9018951F920F920FB60F9237
:1019300011240BB60F922F933F934F935F936F93A6
:101940007F938F939F93AF93BF93CF93DF93EF9347
:10195000FF9320914F0530E0F901E956FD4F849146
:10196000F901EF5AFD4FD491F901E55FFD4FC491A4
:10197000CC2379F081110E945302EC2FF0E0EE0F9E
:10198000FF1FE454FE4FA591B491EC91ED2381E04B
:1019900009F480E020915305309154052F5F3F4FAB
:1019A000309354052093530590915205953618F0C5
:1019B00096E090934E0590914E05943009F466C0E0
:1019C000B8F49230F1F0933009F444C0909151058D
:1019D000992309F46BC081117EC080915005882342
:1019E00009F463C08091500561E00E94BA025EC0B4
:1019F000953009F457C0963049F791E090931F064F
:101A00004FC08111E3CF2091530530915405243606
:101A1000310528F41092540510925305D7CF109237
:101A20001F0610925205E091520591E09E0F90938F
:101A30005205F0E02091530530915405EE0FFF1F41
:101A4000E25BFA4F308727831092540510925305BA
:101A500093E019C0813009F0B9CFE091520591E0CF
:101A60009E0F90935205F0E020915305309154055C
:101A7000EE0FFF1FE25BFA4F308727831092540569
:101A80001092530594E090934E05A0CF882359F20D
:101A900020915305309154052536310508F496CF31
:101AA00095E0F1CF811192CFB5CF2F9AFF91EF91B1
:101AB000DF91CF91BF91AF919F918F917F916F9166
:101AC0005F914F913F912F910F900BBE0F900FBEE2
:101AD0000F901F90189580915005882321F08091D8
:101AE000500560E082CF2F98E1CF1F920F920FB682
:101AF0000F9211240BB60F922F933F934F935F9346
:101B00006F937F938F939F93AF93BF93CF93DF9305
:101B1000EF93FF9380919702C0915C06D0E087FF1E
:101B200023C01092850010928400809197028F5FED
:101B30008093970280919702082E000C990B8C17C6
:101B40009D0724F4809197028C3074F18091840079
:101B50009091850084349C4908F465C0809184008C
:101B600090918500049661C080919702082E000C28
:101B7000990B8C179D07CCF63091970225E0320324
:101B8000F0011124E05EF94F808186FFCECF3091C5
:101B900097023203F0011124E05EF94F808160E08A
:101BA0008F730E94BA02C1CF80918400909185000A
:101BB0003091970225E03203F0011124E05EF94FE5
:101BC00041815281840F951F9093890080938800F2
:101BD000309197023203F0011124E05EF94F8081C9
:101BE00086FF0CC0309197023203F0011124E05EB1
:101BF000F94F808161E08F730E94BA02FF91EF91EB
:101C0000DF91CF91BF91AF919F918F917F916F9114
:101C10005F914F913F912F910F900BBE0F900FBE90
:101C20000F901F90189580E49CE990938900809311
:101C300088008FEF80939702E1CF10926E0310928D
:101C40006D0388EE93E0A0E0B0E080936F03909383
:101C50007003A0937103B09372032BE132E03093D1
:101C60006C0320936B0310927A0310927903809394
:101C70007B0390937C03A0937D03B0937E032DE2BE
:101C800032E0309378032093770345E351E050939B
:101C900084034093830344E351E0509386034093CD
:101CA000850340E351E0509388034093870341E369
:101CB00051E050938A034093890342E351E05093EB
:101CC0008C0340938B0346E351E050938E03409383
:101CD0008D03109290031092910310929203109230
:101CE0009303109217041092160480931804909393
:101CF0001904A0931A04B0931B0430931504209385
:101D0000140445ED50E0509321044093200444ED29
:101D100050E0509323044093220440ED50E0509350
:101D200025044093240441ED50E050932704409350
:101D3000260442ED50E0509329044093280446EDD8
:101D400050E050932B0440932A0410922D041092DB
:101D50002E0410922F04109230041092B4041092AA
:101D6000B3048093B5049093B604A093B704B093E2
:101D7000B8043093B2042093B10485EC90E09093C2
:101D8000BE048093BD0484EC90E09093C0048093E3
:101D9000BF0480EC90E09093C2048093C10481EC76
:101DA00090E09093C4048093C30482EC90E09093FD
:101DB000C6048093C50486EC90E09093C804809399
:101DC000C7041092CA041092CB041092CC04109253
:101DD000CD0480910F0290911002A0911102B09158
:101DE00012028093460790934707A0934807B09349
:101DF00049078091130290911402A0911502B091AD
:101E0000160280934A0790934B07A0934C07B09318
:101E10004D0784E080934E0787E080934F07109230
:101E2000500784EB8093510786E18093520788E145
:101E30008093530787E18093540789E18093550786
:101E4000E0915C06EC3008F4AAC08FEF809356074F
:101E5000E0915C06EC3008F4B3C08FEF8093570735
:101E60008CE08093250784E28093260786E08093A8
:101E7000270785E0809328078FE1809329078EE16B
:101E800080932A0783E280932B0782E280932C07BA
:101E900085E480932D0784E480932E0780E480936B
:101EA00031071092360710923707109238071092B8
:101EB000390710923A0710923B0710923C07109294
:101EC0003D07E7E6F6E025E237E08FEF9FEFDC0124
:101ED000128213821482158216821782108611864E
:101EE00083879487A587B6878787908BA18BB28BD2
:101EF00012861182108273962E173F0749F78DE0E4
:101F000090E00E946115FC01138212828FE392E03F
:101F100091838083118687E2848384E1828784E0D1
:101F200083871486F0936406E09363061092650637
:101F30001092660685E280934F051092510510922B
:101F40005E0610925D061092600610925F06109277
:101F500062061092610661E070E090E080E00E940D
:101F600086160097F1F190935E0680935D061092BD
:101F7000600610925F062091610630916206232B65
:101F800011F4FC011082109262061092610661E663
:101F900072E080915D0690915E060C94701781E06E
:101FA0008E0F80935C06E093560785E0E89FF00172
:101FB0001124E05EF94F88EB9BE09283818348CF48
:101FC00081E08E0F80935C06E093570785E0E89FE1
:101FD000F0011124E05EF94F88EB9BE0928381834E
:101FE0003FCF80915D0690915E06009711F00E94B0
:101FF000FD1510925E0610925D0610926206109218
:1020000061061092600610925F060895789484B578
:10201000826084BD84B5816084BD85B5826085BDE4
:1020200085B5816085BD80916E00816080936E0072
:102030001092810080918100826080938100809164
:102040008100816080938100809180008160809315
:1020500080008091B10084608093B1008091B000D5
:1020600081608093B00080919100826080939100A4
:1020700080919100816080939100809190008160B7
:10208000809390008091A10082608093A100809154
:10209000A10081608093A1008091A0008160809365
:1020A000A000809121018260809321018091210113
:1020B00081608093210180912001816080932001C3
:1020C00080917A00846080937A0080917A008260A7
:1020D00080937A0080917A00816080937A00809169
:1020E0007A00806880937A001092C100E091C10468
:1020F000F091C20482E08083E091BD04F091BE04BF
:102100001082E091BF04F091C0048FEC80831092A4
:10211000C904E091C504F091C60486E08083E09193
:10212000C304F091C404808180618083E091C30482
:10213000F091C404808188608083E091C304F091B1
:10214000C404808180688083E091C304F091C4045A
:1021500080818F7D808361E0809126070E94270324
:1021600060E0809126070E94BA0260E08091250716
:102170000E9427038BE693E09093300780932F070C
:102180001092D0021092CF021092480310926A036C
:102190000E94E8028BEC91E09093F3028093F202AC
:1021A0008CEC91E09093F7028093F60280E090E14E
:1021B000A0E0B0E08093320790933307A0933407F8
:1021C000B09335078AE090E0A0E0B0E08093360756
:1021D00090933707A0933807B093390780E090E0D9
:1021E000A0E0B0E480933A0790933B07A0933C07AC
:1021F000B0933D0760E070E185E00E9464046FE900
:1022000079E380E00E94640407E217E0C5E2D7E0CA
:1022100069E2C62E67E0D62E70E4672E72E0772E54
:10222000E6E88E2EE2E09E2EFBECEF2EF7E0FF2E8E
:10223000F801928181918F01898F9A8F61E00E94CC
:10224000270361E08A8D0E9427035E01FDE1AF0E46
:10225000B11CF801958183818D8F9E8F61E00E9472
:10226000270360E08E8D0E94270361E08D8D0E9420
:10227000BA025FB6F89480919D02811125C0F301E6
:102280008491F4019491E82FF0E0EE0FFF1FE952E2
:10229000FE4FA591B4918C91982321F461E085E3E0
:1022A0000E94BA0261E085E30E9427038CB5806139
:1022B0008CBD8CB580648CBD61E084E30E942703F3
:1022C00061E083E30E94270380919D028F5F8093EA
:1022D0009D025FBEC7010197F1F760E08D8D0E94FE
:1022E000BA0288E80E944C0783E00E944C0761E034
:1022F0008D8D0E94BA02C7010197F1F7C5010E94B6
:1023000053072296CC16DD0609F092CF0AE417E0B7
:10231000C6E4D7E04EE4E42E47E0F42E60E0F80196
:1023200081918F010E942703E016F106B9F78AE434
:10233000E82E87E0F82E06E417E095E0D92E2CE091
:10234000B22E32E0C32E88898C3008F043C0A884B6
:1023500061E08A2D0E9427038889D89EF00111240C
:10236000E05EF94F2A2D2F739081907C922B908301
:10237000138214826B2D0E9433148B9DA0011124B3
:1023800030E020E0BA01620F731FD69EF001D79EA5
:10239000F00D1124E05EF94F908196FD12C02F5F81
:1023A0003F4F2C30310571F781110BC01092800026
:1023B000C09281001092850010928400C6BAC0922B
:1023C0006F00E889DE9EF0011124E05EF94F808104
:1023D000806480839E858C85F801828B938B60E07E
:1023E0000E94270361E0F80183890E94270360E0CF
:1023F000F80183890E94BA0221960E5F1F4FE016F2
:10240000F10609F0A0CFF8941092200189E08093A2
:10241000210180E293E0909329018093280110929A
:1024200025011092240182E08093730078948093B8
:102430004E051092520580914F0560E00E942703DF
:1024400060E080E30E94270360E081E30E942703AD
:1024500064E670E080E090E00E949B04C3E0D0E07E
:1024600061E0809126070E94BA0264E670E080E095
:1024700090E00E949B0460E0809126070E94BA02CF
:1024800064E670E080E090E00E949B04219741F7B1
:1024900060E971E080E090E00E949B0487E492E0B4
:1024A0000E94D9088FE592E00E94D9084091050268
:1024B0005091060260910702709108028EE397E046
:1024C0000E94250640910102509102026091030290
:1024D00070910402705880E497E00E94250682E41F
:1024E00097E00E947E072B013C0188249924540127
:1024F00084189508A608B70884E497E00E947E0730
:102500006B017C0182E692E00E94D9081414150444
:10251000160417040CF051C0C501B4010E942A0929
:102520008FE592E00E94D9088EE692E00E94D908D9
:10253000F7FE49C0C701B6010E942A098FE592E063
:102540000E94D9084091050250910602609107024D
:102550007091080222EA32E0C4010E94FB076093F6
:10256000050270930602809307029093080240913F
:1025700001025091020260910302709104022EE95F
:1025800032E0C6010E94FB076093010270930202D1
:10259000809303029093040282E497E00E94530721
:1025A00084E497E00E94530764E670E080E090E0E6
:1025B0000E949B040E94000679CF4AE0C501B40145
:1025C0000E94E608ADCF4AE0C701B6010E94E608C6
:1025D000B5CF80915D0690915E06009711F00C9446
:1025E000FD150895E89409C097FB3EF490958095F9
:1025F000709561957F4F8F4F9F4F9923A9F0F92FC9
:1026000096E9BB279395F695879577956795B79546
:10261000F111F8CFFAF4BB0F11F460FF1BC06F5F2C
:102620007F4F8F4F9F4F16C0882311F096E911C03E
:10263000772321F09EE8872F762F05C0662371F05F
:1026400096E8862F70E060E02AF09A95660F771F73
:10265000881FDAF7880F9695879597F90895990F4F
:102660000008550FAA0BE0E8FEEF16161706E8075C
:10267000F907C0F012161306E407F50798F0621B7D
:10268000730B840B950B39F40A2661F0232B242B52
:10269000252B21F408950A2609F4A140A6958FEF71
:1026A000811D811D08950E9466130C94D7130E940A
:1026B000C91338F00E94D01320F0952311F00C9428
:1026C000C0130C94C61311240C940B140E94E8132D
:1026D00070F3959FC1F3950F50E0551F629FF00175
:1026E000729FBB27F00DB11D639FAA27F00DB11D8E
:1026F000AA1F649F6627B00DA11D661F829F222717
:10270000B00DA11D621F739FB00DA11D621F839F9D
:10271000A00D611D221F749F3327A00D611D231F73
:10272000849F600D211D822F762F6A2F11249F57C1
:1027300050409AF0F1F088234AF0EE0FFF1FBB1FC4
:10274000661F771F881F91505040A9F79E3F510583
:1027500080F00C94C0130C940B145F3FE4F3983E8C
:10276000D4F3869577956795B795F795E7959F5F2D
:10277000C1F7FE2B880F911D9695879597F90895BF
:1027800097F99F6780E870E060E008959FEF80EC24
:10279000089500240A9416161706180609060895C7
:1027A00000240A9412161306140605060895092E2D
:1027B0000394000C11F4882352F0BB0F40F4BF2B9C
:1027C00011F460FF04C06F5F7F4F8F4F9F4F0895DC
:1027D00057FD9058440F551F59F05F3F71F04795D2
:1027E000880F97FB991F61F09F3F79F087950895B7
:1027F000121613061406551FF2CF4695F1DF08C0D6
:10280000161617061806991FF1CF869571056105F2
:1028100008940895E894BB2766277727CB0197F99A
:102820000895A1E21A2EAA1BBB1BFD010DC0AA1F11
:10283000BB1FEE1FFF1FA217B307E407F50720F029
:10284000A21BB30BE40BF50B661F771F881F991FA4
:102850001A9469F760957095809590959B01AC01ED
:10286000BD01CF010895991B79E004C0991F961707
:1028700008F0961B881F7A95C9F780950895EE0F8A
:10288000FF1F881F8BBF0790F691E02D19945058B9
:10289000BB27AA270E945F140C94D7130E94C91368
:1028A00038F00E94D01320F039F49F3F19F426F439
:1028B0000C94C6130EF4E095E7FB0C94C013E92FBB
:1028C0000E94E81358F3BA17620773078407950745
:1028D00020F079F4A6F50C940A140EF4E0950B2E72
:1028E000BA2FA02D0B01B90190010C01CA01A00162
:1028F0001124FF27591B99F0593F50F4503E68F1BD
:102900001A16F040A22F232F342F4427585FF3CFFD
:10291000469537952795A795F0405395C9F77EF4CE
:102920001F16BA0B620B730B840BBAF09150A1F017
:10293000FF0FBB1F661F771F881FC2F70EC0BA0F9D
:10294000621F731F841F48F4879577956795B79525
:10295000F7959E3F08F0B0CF9395880F08F0992720
:10296000EE0F9795879508950E94C8140C94D7137D
:102970000E94D01358F00E94C91340F029F45F3F21
:1029800029F00C94C01351110C940B140C94C61321
:102990000E94E81368F39923B1F3552391F3951B33
:1029A000550BBB27AA2762177307840738F09F5F70
:1029B0005F4F220F331F441FAA1FA9F335D00E2EDD
:1029C0003AF0E0E832D091505040E695001CCAF74A
:1029D0002BD0FE2F29D0660F771F881FBB1F26170D
:1029E00037074807AB07B0E809F0BB0B802DBF01E4
:1029F000FF2793585F4F3AF09E3F510578F00C94B3
:102A0000C0130C940B145F3FE4F3983ED4F3869507
:102A100077956795B795F7959F5FC9F7880F911DD3
:102A20009695879597F90895E1E0660F771F881FBF
:102A3000BB1F621773078407BA0720F0621B730B72
:102A4000840BBA0BEE1F88F7E09508950E942D15B0
:102A50006894B1110C940B1408950E94F01388F03F
:102A60009F5798F0B92F9927B751B0F0E1F0660F52
:102A7000771F881F991F1AF0BA95C9F714C0B13093
:102A800091F00E940A14B1E008950C940A14672F83
:102A9000782F8827B85F39F0B93FCCF386957795C2
:102AA0006795B395D9F73EF49095809570956195AB
:102AB0007F4F8F4F9F4F08950E942F1308F48FEF81
:102AC00008950F931F93CF93DF938230910510F4F5
:102AD00082E090E0E0915E07F0915F0730E020E057
:102AE000B0E0A0E0309799F42115310509F44AC00F
:102AF000281B390B24303105D8F58A819B8161155B
:102B0000710589F1FB0193838283FE0111C040812D
:102B100051810281138148175907E0F0481759077E
:102B200099F4109761F012960C93129713961C93D8
:102B30003296CF01DF91CF911F910F9108950093AD
:102B40005E0710935F07F4CF2115310551F042174E
:102B5000530738F0A901DB019A01BD01DF01F8013B
:102B6000C1CFEF01F9CF90935F0780935E07CDCF80
:102B7000FE01E20FF31F81939193225031093983B3
:102B80002883D7CF20915C0730915D07232B41F438
:102B900020910B0230910C0230935D0720935C076B
:102BA0002091090230910A022115310541F42DB717
:102BB0003EB740910D0250910E02241B350BE0915F
:102BC0005C07F0915D07E217F307A0F42E1B3F0BA3
:102BD0002817390778F0AC014E5F5F4F241735078F
:102BE00048F04E0F5F1F50935D0740935C07819341
:102BF00091939FCFF0E0E0E09CCFCF93DF930097DD
:102C0000E9F0FC01329713821282A0915E07B09125
:102C10005F07ED0130E020E01097A1F420813181C1
:102C2000820F931F20915C0730915D0728173907A9
:102C300009F061C0F0935D07E0935C07DF91CF91ED
:102C40000895EA01CE17DF07E8F54A815B819E010E
:102C500041155105B1F7E901FB83EA834991599187
:102C6000C40FD51FEC17FD0761F480819181029696
:102C7000840F951FE90199838883828193819B83C7
:102C80008A83F0E0E0E012968D919C911397009773
:102C9000B9F52D913C911197CD010296820F931FAA
:102CA00020915C0730915D072817390739F6309776
:102CB00051F510925F0710925E07B0935D07A093E5
:102CC0005C07BCCFD383C28340815181840F951FA1
:102CD000C817D90761F44E5F5F4F88819981480F0B
:102CE000591F518340838A819B819383828321155D
:102CF000310509F0B0CFF0935F07E0935E079ECFF8
:102D0000FD01DC01C0CF13821282D7CF4F925F92B8
:102D10006F927F928F929F92AF92BF92CF92DF92EB
:102D2000EF92FF920F931F93CF93DF938C01009745
:102D300099F4CB01DF91CF911F910F91FF90EF900C
:102D4000DF90CF90BF90AF909F908F907F906F90CB
:102D50005F904F900C946115FC01E60FF71F9C01EA
:102D600022503109E217F30708F4AEC0D901CD9122
:102D7000DC911197C617D70720F1C530D10578F03F
:102D8000CE0104978617970750F0C61BD70B2297E2
:102D9000C193D1936D937C93CF010E94FD15C8011F
:102DA000DF91CF911F910F91FF90EF90DF90CF9027
:102DB000BF90AF909F908F907F906F905F904F905B
:102DC00008955B01AC1ABD0A4C018C0E9D1EA091AA
:102DD0005E07B0915F07512C412CF12CE12C10972C
:102DE00031F580915C0790915D078815990509F090
:102DF0005CC04616570608F058C0809109029091B1
:102E00000A02009741F48DB79EB740910D02509190
:102E10000E02841B950BE817F90708F055C0F093D4
:102E20005D07E0935C07F90171836083B8CF8D91F2
:102E30009C91119712966C90129713967C90139711
:102E4000A815B90559F56C0142E0C40ED11CCA148D
:102E5000DB0420F1AC014A195B09DA0112961597DF
:102E600080F06282738251834083D9016D937C9399
:102E7000E114F10471F0D7011396FC93EE931297CD
:102E80008ECF22968C0F9D1FF90191838083F301D1
:102E9000EFCFF0935F07E0935E0781CF48165906A6
:102EA00008F42C017D01D3019ACFCB010E9461155A
:102EB0007C01009749F0AE01B8010E946717C80174
:102EC0000E94FD1587016BCF10E000E068CFFB0189
:102ED000DC0102C001900D9241505040D8F7089596
:102EE000FB01DC0101900D920020E1F7089511E053
:102EF000C0E7D1E000E006C0802FFE010E943F1431
:102F00002196011DC137D10780E00807A9F7F89481
:022F1000FFCFF1
:102F1200FFCDCCCC3ECDCCCC3E000060078000364D
:102F22003738391B1D1A1C000000002402F701F873
:102F320007CD01F001DD01CE01000000009005CDBA
:102F4200041305DD0544052205360500000000B521
:102F520008CD04F807F707496E697469616C6973F3
:102F62006174696F6E20636F6D706C657465000DBE
:102F72000A00456E636F64657220313A2000456E27
:0A2F8200636F64657220323A20008C
:00000001FF
